:1000000093C0ADC0ACC05AC3AAC0A9C0A8C0A7C005
:10001000A6C0A5C0A4C0A3C0D4C1A1C0A0C09FC099
:100020009EC09DC09CC09BC0FF38283718FF273456
:100030000839FFFF17FF240D78FF2936FFFFFF3532
:1000400007FFFFFF14137D126869FFFF196A26FF7F
:10005000FF3AFFFFFFFF250E7776FFFFFF6BFFFFE5
:1000600004FF03FF6D6C020158FF59FFFFFFFF33D0
:10007000090A5AFF160BFF0CFFFF2A2BFFFFFFFF99
:10008000FFFFFFFF15FF7E7F67FF66FFFFFFFFFF9C
:10009000FFFF5BFFFFFFFFFF7475FFFF73FFFFFFB5
:1000A0005D5E5CFF725F71004847FF4449FFFF1DC2
:1000B000FF46FF45FFFF232279FF7AFF4AFFFF1E1D
:1000C00006FF7BFFFFFF7C11FFFFFF431AFF1B1C96
:1000D000FF3BFFFFFFFFFF0FFFFFFFFFFFFFFFFFE4
:1000E00005FFFFFF6EFF6F105754FF2D5655FF326F
:1000F000FFFFFF2EFFFFFF21FF53FF2C4BFFFF1FD2
:10010000FFFFFFFFFFFFFF20643D6542FF3EFF3121
:10011000633CFF2FFFFFFF304D524E414C3FFF40ED
:1001200062514F50616070FF11241FBECFEFD2E0CB
:10013000DEBFCDBF11E0A0E0B1E0E6E5F7E002C030
:1001400005900D92AE31B107D9F721E0AEE1B1E0F3
:1001500001C01D92AB38B207E1F7A0D2FAC250CF6E
:10016000CF92DF92EF92FF920F931F93CF93DF9383
:1001700084B18C7F84B987B1887787B988E08AB9E0
:100180005B9A8DE085BD8EE487BD82E080936E0032
:1001900016BC5B9800000000000046B196B1C6B0E6
:1001A000D6B039B129B183B1F3B1042E000C550B8F
:1001B000409550954427550F441F55275695542F69
:1001C000442757954795E92FE17091E0EE2EE926F7
:1001D000F12C0024F694E7940794F694E79407949E
:1001E000FE2CE02CE42AF52AF695F9270F2F017052
:1001F00010E0F701E02BF12B5C2D5695592751703B
:10020000C52F40E0D42FCC0FDD1FC295D295D07FF3
:10021000DC27C07FDC27EC2BFD2B4D2D469546952A
:100220004927A42FA170B0E0A295B295B07FBA275C
:10023000A07FBA27EA2BFB2B329536953695337083
:100240003927632F617070E0660F771F660F771F85
:10025000660F771FE62BF72B022E000C330B209531
:1002600030952227330F221F3327220F331F220FEF
:10027000331FE22BF32B81709827892F90E0880F92
:10028000991FE82BF92BE85DFF4F84915B9A8093CF
:100290002001DF91CF911F910F91FF90EF90DF90A0
:1002A000CF900895CF92DF92EF92FF920F931F931A
:1002B000CF93DF935B9800000000000046B196B139
:1002C000C6B0D6B039B129B183B1F3B1042E000C58
:1002D000550B409550954427550F441F552756956B
:1002E000542F442757954795E92FE17091E0EE2E62
:1002F000E926F12C0024F694E7940794F694E79409
:100300000794FE2CE02CE42AF52AF695F9270F2F06
:10031000017010E0F701E02BF12B5C2D5695592769
:100320005170C52F40E0D42FCC0FDD1FC295D29560
:10033000D07FDC27C07FDC27EC2BFD2B4D2D469595
:1003400046954927A42FA170B0E0A295B295B07F41
:10035000BA27A07FBA27EA2BFB2B32953695369524
:1003600033703927632F617070E0660F771F660F57
:10037000771F660F771FE62BF72B022E000C330B2F
:10038000209530952227330F221F3327220F331F4A
:10039000220F331FE22BF32B81709827892F90E0D7
:1003A000880F991FE82BF92BE85DFF4F84915B9A2A
:1003B000DF91CF911F910F91FF90EF90DF90CF9041
:1003C00008951F920F920FB60F9211240F931F934F
:1003D0002F933F934F935F936F937F938F939F934D
:1003E000AF93BF93CF93DF93EF93FF9380911E0161
:1003F00090911F01009709F44BC00197A9F0FF915C
:10040000EF91DF91CF91BF91AF919F918F917F91AC
:100410006F915F914F913F912F911F910F910F908D
:100420000FBE0F901F90189580912201909123018B
:1004300095958795959587958C0102951295107FD6
:100440001027007F1027081B190B15950795159588
:100450000795159507951595079515950795C0E08E
:10046000D0E007C06CE08C2FDAD02196CE31D105D8
:1004700051F00C171D07B4F760E18C2FD0D02196F6
:10048000CE31D105B1F710921F0110921E01B7CFE6
:1004900009DF8093210190912001963700F59F306C
:1004A00038F58F3628F1282F30E0291B31092058E4
:1004B00031094091220150912301240F351F3093BF
:1004C0002301209322018093200180911E019091AD
:1004D0001F01019690931F0180931E0190CF8A30D7
:1004E00038F4282F30E0291B310920583F4FE1CF45
:1004F000282F30E0291B3109DCCF82E08093B8003F
:10050000E9EBF0E08081808308959091BC00946ACB
:100510009093BC009091BC0097FFFCCF9091B900E4
:10052000987F983039F09091B900987F903111F010
:1005300081E00895880F682B6093BB0084E8809366
:10054000BC008091BC0087FFFCCF8091B900887F00
:10055000883129F08091B900887F803449F780E0A4
:10056000089584E98093BC0008958093BB0084E8DB
:100570008093BC008091BC0087FFFCCF9091B900B4
:10058000987F81E0983209F0089580E00895CF9334
:1005900060E084E3BADF8823C1F160E084E3B5DF83
:1005A000882349F160E084E3B0DF8823D1F0C0E91B
:1005B00003C0CF5FCF3989F060E084E3A6DF81110B
:1005C000F8CF8C2FD2DF8111F4CF8CE3CEDF8111F5
:1005D000F0CFC7DFCF5FCF3979F73B9A439ACF91FE
:1005E000089581EAC2DF8111E2CF8EE1BEDF811181
:1005F000DECFB7DFDCCF80EAB8DF8111D3CF81E077
:10060000B4DF8111CFCFADDFCDCF8FECAEDF811165
:10061000C4CF8EEAAADF8111C0CFA3DFBECFCF93B4
:10062000DF93C62FE82FF0E0E050FF4FD08160E06D
:1006300084E36BDF882329F0D1E08D2FDF91CF9108
:1006400008958D2F92DFD82F8111F6CF8C2F8370D4
:10065000982F990F990F890F982F9295907F890F56
:1006600084DF8C2F869586958370982F990F990F2C
:10067000890F982F9295907F890F77DFC295C3706D
:100680008C2F880F880FC80F8C2F8295807F8C0F3E
:100690006CDF67DF8D2FDF91CF91089561DD2DDF56
:1006A00076DF3FD04FD078942FEF89E698E1215044
:1006B00080409040E1F700C00000F6CF1F920F92FB
:1006C0000FB60F9211242F938F939F93EF93FF9365
:1006D0001A9B1AC0F8942EB580912601843679F0C1
:1006E000E091240191E09E0F90932401F0E0E95DF8
:1006F000FE4F20838F5F80932601943679F095B169
:1007000080E4892785B97894FF91EF919F918F912B
:100710002F910F900FBE0F901F90189510922401EB
:10072000EECF27982F98249A269AE8E6F0E0808169
:1007300081608083EBE6F0E080818460808380E4E8
:100740008CBD08951092250110922401109226016B
:060750000895F894FFCFAC
:100756000111213141510414243444540717273719
:0E07660047570A1A2A3A4A5A0D1D2D3D4D5D7D
:00000001FF
