S01400004C65642072696E67204143452E7372656342
S113000093C0ADC0ACC04AC8AAC0A9C0A8C0A7C00C
S1130010A6C0A5C0A4C0A3C028C2A1C0A0C09FC040
S11300209EC09DC09CC09BC0FF38283718FF273452
S11300300839FFFF17FF240D78FF2936FFFFFF352E
S113004007FFFFFF14137D126869FFFF196A26FF7B
S1130050FF3AFFFFFFFF250E7776FFFFFF6BFFFFE1
S113006004FF03FF6D6C020158FF59FFFFFFFF33CC
S1130070090A5AFF160BFF0CFFFF2A2BFFFFFFFF95
S1130080FFFFFFFF15FF7E7F67FF66FFFFFFFFFF98
S1130090FFFF5BFFFFFFFFFF7475FFFF73FFFFFFB1
S11300A05D5E5CFF725F71004847FF4449FFFF1DBE
S11300B0FF46FF45FFFF232279FF7AFF4AFFFF1E19
S11300C006FF7BFFFFFF7C11FFFFFF431AFF1B1C92
S11300D0FF3BFFFFFFFFFF0FFFFFFFFFFFFFFFFFE0
S11300E005FFFFFF6EFF6F105754FF2D5655FF326B
S11300F0FFFFFF2EFFFFFF21FF53FF2C4BFFFF1FCE
S1130100FFFFFFFFFFFFFF20643D6542FF3EFF311D
S1130110633CFF2FFFFFFF304D524E414C3FFF40E9
S113012062514F50616070FF11241FBECFEFD2E0C7
S1130130DEBFCDBF11E0A0E0B1E0E0EFF6E102C028
S113014005900D92AE31B107D9F721E0AEE1B1E0EF
S113015001C01D92A93FB207E1F706D6C7CA50CF26
S1130160BF92CF92DF92EF92FF920F931F93CF93A0
S1130170DF93DC0184B18C7F84B987B1887787B938
S113018088E08AB95B9A5B98000000000000E6B141
S113019086B156B136B199B149B123B1B3B00E2E7F
S11301A0000CFF0BE095F095EE27FF0FEE1FFF27E5
S11301B0F695FE2FEE27F795E7958170E82E81E0FE
S11301C0E826F12C0024F694E7940794F694E79437
S11301D00794FE2CE02CEE29FF29FB2CF694F8263C
S11301E0F0FACC24C0F8D12CEC29FD2956955827D7
S11301F0052F017010E0000F111F02951295107F5A
S11302001027007F1027E02BF12B369536953827E1
S11302103170C32F30E0D32FC295D295D07FDC2725
S1130220C07FDC27EC2BFD2B9295969596959370C9
S11302309827692F617070E0660F771F660F771F2C
S1130240660F771FE62BF72B042E000C550B4095F9
S113025050954427550F441F5527440F551F440FED
S1130260551FE42BF52B2170282730E0220F331F74
S1130270E22BF32BE85DFF4F94915B9A14969C93C9
S113028014979FE712969C93129716968C93DF917E
S1130290CF911F910F91FF90EF90DF90CF90BF907F
S11302A00895CF92DF92EF92FF920F931F93CF9313
S11302B0DF935B9800000000000046B196B1C6B021
S11302C0D6B039B129B183B1F3B1042E000C550B6A
S11302D0409550954427550F441F55275695542F44
S11302E0442757954795E92FE17091E0EE2EE926D2
S11302F0F12C0024F694E7940794F694E794079479
S1130300FE2CE02CE42AF52AF695F9270F2F01702C
S113031010E0F701E02BF12B5C2D56955927517015
S1130320C52F40E0D42FCC0FDD1FC295D295D07FCE
S1130330DC27C07FDC27EC2BFD2B4D2D4695469505
S11303404927A42FA170B0E0A295B295B07FBA2737
S1130350A07FBA27EA2BFB2B32953695369533705E
S11303603927632F617070E0660F771F660F771F60
S1130370660F771FE62BF72B022E000C330B20950C
S113038030952227330F221F3327220F331F220FCA
S1130390331FE22BF32B81709827892F90E0880F6D
S11303A0991FE82BF92BE85DFF4F84915B9ADF914D
S11303B0CF911F910F91FF90EF90DF90CF90089510
S11303C0FC0124814381263710F14A3058F1842FEF
S11303D090E0821B910920813181280F391F3183DC
S11303E02083448340815181228130E024173507E2
S11303F024F4228130E0318320832081318137FD50
S113040018C0892B19F081E08583868308952F30E5
S1130410F0F64F36E0F2842F90E0821B9109805869
S11304209109D9CF842F90E0821B910980589F4F66
S1130430D2CF11821082E5CF2CE025BD2EE127BD5D
S113044022E020936E0016BC21E0FC012483089571
S113045021E0FC0124830895FC0114820895FC0129
S113046080819181A281B381089578941F920F9223
S11304700FB60F9211242F933F934F935F936F9373
S11304807F938F939F93AF93BF93EF93FF93809149
S11304906E008D7F80936E0080912B01813009F472
S11304A051C080912B018A30F8F080912A01882371
S11304B0D9F08091F40181110EC080912501882327
S11304C051F040911F01509120016FE171E084E9E6
S11304D091E0FCD105C08091F401813009F443C05E
S11304E01092250110922B0180916E0082608093FE
S11304F06E0080912B018F5F80932B0180912601E8
S113050090912701A0912801B09129010196A11D84
S1130510B11D8093260190932701A0932801B093E5
S11305202901FF91EF91BF91AF919F918F917F919D
S11305306F915F914F913F912F910F900FBE0F904C
S11305401F90189580912A01882309F4AACF8091DD
S1130550F801882309F4A5CFA4DE809322018FE15A
S113056091E02EDFC1CF84E991E0B2D0B9CF80E22F
S11305708093B800E9EBF0E0808180830895909146
S1130580BC00946A9093BC009091BC0097FFFCCF90
S11305909091B900987F983039F09091B900987F84
S11305A0903111F081E00895880F682B6093BB00AF
S11305B084E88093BC008091BC0087FFFCCF8091CD
S11305C0B900887F883129F08091B900887F803410
S11305D049F780E0089584E98093BC0008958093EE
S11305E0BB0084E88093BC008091BC0087FFFCCFF3
S11305F09091B900987F81E0983209F0089580E0E5
S113060008950F931F93CF938C0160E084E3B7DFC9
S1130610882309F453C060E084E3B1DF882309F43C
S113062043C060E084E3ABDF8823A1F1C0E903C0E9
S1130630CF5FCF3989F060E084E3A1DF8111F8CF87
S11306408C2FCDDF8111F4CF8CE3C9DF8111F0CF82
S1130650C2DFCF5FCF3979F7F801EC59FF4F81E062
S113066080833A978FEF808331961082319610827F
S1130670319610823196808331968083329683E15D
S1130680808331968BE080833B9A439ACF911F916C
S11306900F91089581EAA3DF8111C8CF8EE19FDF16
S11306A08111C4CF98DFC2CF80EA99DF8111B9CF1D
S11306B081E095DF8111B5CF8EDFB3CF8FEC8FDF73
S11306C08111A9CF8EEA8BDF8111A5CF84DFA3CF5F
S11306D08F929F92BF92CF92DF92EF92FF920F93ED
S11306E01F93CF93DF9320E0C22E21E0D22E7C0112
S11306F036E0832E31E0932EF601C1916F0160E064
S113070084E33DDF811127C08C2F69DFB82E81116E
S113071022C08701025E1F4FE701888160DF898163
S11307205EDF8A815CDF2696C017D107B1F7FFEF41
S1130730EF1AFF0A8C149D04F9F64DDF8B2DDF911F
S1130740CF911F910F91FF90EF90DF90CF90BF90CA
S11307509F908F900895BB24B394F0CF8F929F9273
S1130760AF92BF92CF92DF92EF92FF920F931F93BB
S1130770CF93DF9300D000D0CDB7DEB7A82EB12C35
S1130780750191E0E91AF108E1EEE80FEA838D536F
S1130790898300E011E01C821B82C12C4501FEE12B
S11307A08F1A91088CE3A81AB10817C09A819F3157
S11307B010F5F801D08060E084E3E1DE882309F4D9
S11307C07AC090E3C92E8B819C8101969C838B8394
S11307D00F5F1F4F4E9709F452C0EB81FC81EE1658
S11307E0FF0624F0FFE1EF16F1049CF18B819C815C
S11307F088159905DCF28B819C818A159B0574F41C
S113080099819F3158F4F801D08060E084E3B7DE29
S1130810882309F445C08CE0C82ED5CFF801D080D8
S113082060E084E3ACDE8111CECF8D2DD8DE811162
S1130830CACF8C2D82958F708295880F880F807C0B
S1130840CEDE8C2D8295807FCADE80E0C8DEC3DEDA
S1130850BACFF801D08060E084E391DE882311F000
S1130860C12CB1CF8D2DBBDE8111FACF80ECB7DE68
S113087080E0B5DE80E0B3DEAEDEC12CA4CF0F9005
S11308800F900F900F90DF91CF911F910F91FF90D8
S1130890EF90DF90CF90BF90AF909F908F9008958E
S11308A08D2D9DDE8111B7CF9ADE80E098DE80EC3D
S11308B096DE91DEB0CF8D2D92DE811182CF8FDE58
S11308C080EC8DDE80E08BDE86DE7BCF2F923F9244
S11308D04F925F926F927F928F929F92AF92BF924C
S11308E0CF92DF92EF92FF920F931F93CF93DF93F8
S11308F0CDB7DEB72A970FB6F894DEBF0FBECDBFD3
S11309003C017A836983142F6C0121E6C20ED11C49
S1130910F601E0805C01F2E6AF0EB11CF501008146
S1130920E01608F090C0602F70E06E1971096F5FD7
S11309307F4F072E000C880B990BE1D524E43BE88C
S113094048E850E468D6ADD5E981FA816283612F25
S113095070E080E090E0D3D524E43BE848E850E43C
S113096038D59FD500E011E018861F82E62EF12CC1
S11309704301FAE58F0E911C23012BE5420E511C15
S113098013013CE5230E311CA301435A5F4F5A83E4
S11309904983C301825A9F4F9C838B83F301E15A9D
S11309A0FF4FFE83ED832F8138851FC0A901F50118
S11309B0208130E024173507F4F08E0D9F1DF801D7
S11309C0708060E04817590744F584E3D8DD882334
S11309D009F454C02F8138852F5F3F4F38872F8308
S11309E00F5F1F4F2E31310581F1F601808190E0B8
S11309F028173907DCF6F801708060E084E3BFDD76
S1130A008111E8CF872DEBDD8111E4CFE8DD80E0B3
S1130A10E6DD80E0E4DDDFDDDDCF84E3B0DD811100
S1130A20D9CF872DDCDD8111D5CFE981FA81808191
S1130A30D6DDEB81FC818081D2DDED81FE81808178
S1130A40CEDDC9DDC7CF0E1540F12A960FB6F89456
S1130A50DEBF0FBECDBFDF91CF911F910F91FF90ED
S1130A60EF90DF90CF90BF90AF909F908F907F904A
S1130A706F905F904F903F902F900895872DAFDD3A
S1130A808111A8CFF4018081AADDF2018081A7DD64
S1130A90F1018081A4DD9FDD9DCF6EE1600F6E19B1
S1130AA070E06F5F7F4F072E000C880B990B27D5E2
S1130AB027ED33EA48E850E4AED5F3D4E981FA816E
S1130AC06283612F70E080E090E019D52CEE31E56F
S1130AD048E850E47ED4F12CE4D4A62EB12C650170
S1130AE0CE0CDF1C20E031E03A872987812C912C41
S1130AF0A301465A5F4F5C834B83C301855A9F4FC2
S1130B009E838D83F301E45AFF4FF887EF8310E04F
S1130B102301FDE54F0E511C13012EE5220E311C5D
S1130B204B5F5F4F5A834983F6017E975F0122C072
S1130B308E149F040CF041C08A149B040CF055C021
S1130B40081519050CF45BC0E985FA85708060E02E
S1130B5084E315DD8823F9F0FFEF8F1A9F0A2985B6
S1130B603A852F5F3F4F3A8729873EE183169104E8
S1130B7009F46BCF8C149D04DCF68A149B04ACF549
S1130B808E149F04ECF2E985FA85708060E084E3BA
S1130B90F6DC8111E1CF872D22DD8111DDCFEB81E0
S1130BA0FC8180811CDDED81FE81808118DDEF8177
S1130BB0F885808114DD0FDDCFCFE985FA8570805B
S1130BC060E084E3DCDC8111C7CF872D08DD81116F
S1130BD0C3CFF201808103DDF101808100DDE98171
S1130BE0FA818081FCDCF7DCB7CF081519052CF7F6
S1130BF08C149D0424F48E149F040CF0A5CFE98575
S1130C00FA85708060E084E3BADC8111A5CF872D7A
S1130C10E6DC8111A1CFE3DC80E0E1DC80E0DFDC15
S1130C20DADC9ACFAF92BF92CF92DF92EF92FF922B
S1130C300F931F93CF93DF938C01EB01CB010FDC58
S1130C405C017C0188E7E81A8CEEF80A05C0CE0145
S1130C5006DCE816F90628F08CE291E098D20297B7
S1130C60B4F38CE291E06DD26C018CE291E069D234
S1130C707C0188E7A81A8CEEB80A05C0CE01EFDB28
S1130C80A816B90630F08CE291E081D28C159D054E
S1130C90ACF31C141D0474F4E801CE0DDF1DEC0C40
S1130CA0FD1C0E0D1F1D8CE291E04BD28993C017E1
S1130CB0D107C9F780E090E0DF91CF911F910F91A8
S1130CC0FF90EF90DF90CF90BF90AF900895AF92D8
S1130CD0BF92CF92DF92EF92FF920F931F93CF9325
S1130CE0DF93B82EA92EEB018A01CA01B8DB6C018F
S1130CF07C0188E7E81A8CEEF80A05C0C801AFDB6E
S1130D00E816F90620F0CE0142D2892BB9F3CE01C0
S1130D1018D27C01E8E7CE1AECEEDE0A05C0C80161
S1130D209EDBC816D90628F0CE0131D28E159F0558
S1130D30B4F30B2D1A2D7801F3E0EF0EF11CCE0164
S1130D4000D2F80181938F01EE15FF05C1F780E011
S1130D5090E0DF91CF911F910F91FF90EF90DF9082
S1130D60CF90BF90AF90089514BE0FB6F894A89595
S1130D7080916000886180936000109260000FBED3
S1130D808FE191E0EDD986E291E056DBF0DB84E976
S1130D9091E037DCB9D18CE291E0C7D178942FEFA0
S1130DA080E792E0215080409040E1F700C00000CD
S1130DB004C080912401811112C006E211E02CE2EA
S1130DC031E044E951E06FE171E08EE191E015D04A
S1130DD0019679F75FD180912401882371F31092F1
S1130DE0240120911F01309120010AE041E066E2D4
S1130DF071E08EE191E0D1D1E0CF6F927F928F923A
S1130E009F92AF92BF92CF92DF92EF92FF920F9395
S1130E101F93CF93DF934C01F901EC59FF4F90815D
S1130E20911111C080E090E0DF91CF911F910F915B
S1130E30FF90EF90DF90CF90BF90AF909F908F90F6
S1130E407F906F9008956801E9015A017B01C901FF
S1130E5078D18F3C910531F7C80101DB3C0181E079
S1130E6080939301830108571C4E05C0C601F7DA2D
S1130E700817190728F1CE018AD1892BB9F3CE01BD
S1130E8060D18731910509F4D4C0ECF08C3F910511
S1130E9009F4E4C00CF049C08931910509F470C02B
S1130EA00CF453C04A97E9F4A601BE01C501835A64
S1130EB09F4F0DDF81E0F701868380E090E0B4CF9F
S1130EC08FEF9FEFB1CF8330910509F49AC074F48A
S1130ED08130910509F48AC00CF06EC0892B09F4A5
S1130EE0A1CFCE0122D180E090E09ECF8531910543
S1130EF009F4CAC00CF0BDC0449799F7F8E76F1A1B
S1130F00FCEE7F0A05C0C601AADA68167906C0F2AB
S1130F10CE013DD1892BB9F3CE0113D1F501E05AAD
S1130F20FF4F808380E090E07FCF8E3F9105C9F131
S1130F306CF18F3F9105A9F604E621E04FEFB6016D
S1130F40C4012BD180E090E06FCFF8E76F1AFCEE7C
S1130F507F0A06C0C60183DA6816790608F4B0CFA2
S1130F60CE0115D1892BB1F3CE01EBD0F501EE59A9
S1130F70FF4F808381E0F701868380E090E054CFC7
S1130F80A601BE01C501865A9F4F93CFCE01FFD063
S1130F9004E6282F4DEFB601C401FFD080E090E0B5
S1130FA043CF84E6E82E04E69E014EEFB601C40169
S1130FB06CD180E090E038CFF8E76F1AFCEE7F0A3E
S1130FC006C0C6014CDA6816790608F479CFCE015A
S1130FD0DED0892BB1F3CE01B4D0F70191838083A5
S1130FE081E08683858380E090E01ECFF701208135
S1130FF031810AE041E0B601C401CFD080E090E045
S113100013CFE8E76E1AECEE7E0A06C0C60127DAB3
S11310106816790608F454CFCE01B9D0892BB1F300
S1131020CE018FD0F501EC59FF4F808380E090E032
S1131030FBCE88E7681A8CEE780A06C0C6010FDA80
S11310406816790608F43CCFCE01A1D0892BB1F300
S1131050CE0177D0F501EF59FF4F8BCF98E088E1AF
S11310600FB6F894A895809360000FBE909360002B
S1131070FFCF94E6E92E0AE5950146E1B601C401E5
S113108004D180E090E0D0CEB601C501CBDD80E094
S113109090E0CACEF8948AE561DBFFCF1F920F92ED
S11310A00FB60F9211248F939F93EF93FF931A9B84
S11310B01EC080911E0181111AC09EB580919001BD
S11310C08336A1F0E0919201F0E0E45DFE4F90835D
S11310D0809192018F5F80939201809190018F5F44
S11310E08093900180919201833651F01EBCFF9150
S11310F0EF919F918F910F900FBE0F901F901895B5
S1131100109292011EBCF3CF27982F98249A269A06
S1131110E8E6F0E0808181608083EBE6F0E08081A6
S11311208460808380E48CBD0895FC01EB59FF4FFB
S113113010823196108232971082FC011082118243
S11311400895CF93DF93DC01AC59BF4F2C91222338
S1131150D9F0FC01EB59FF4F2081EC01C20FD11DE6
S1131160288130E080818F5F80838C9181508C93C3
S11311708081833621F0C901DF91CF9108951082D7
S1131180C901DF91CF9108958FEF9FEFF5CF8C596F
S11311909F4FFC01808190E008954F925F926F927F
S11311A07F928F929F92AF92BF92DF92EF92FF92C3
S11311B00F931F93CF93DF937C01EB01D42E122F57
S11311C0CB014DD94C01A12CB12C1A9BFECF86E248
S11311D091E042D981E0F70180838DB58FED8EBD1A
S11311E02F98279A24013501400E511C611C711C53
S11311F00DB407FE02C01A9909C0CE0130D9A0E08F
S1131200B0E0481659066A067B0690F7DEBC240156
S11312103501400E511C611C711C0DB407FE02C047
S11312201A9909C0CE011BD9A0E0B0E048165906AE
S11312306A067B0690F71EBD800E911CA11CB11C92
S11312400DB407FE02C01A9909C0CE0108D9A0E066
S1131250B0E088169906AA06BB0690F72F9827983F
S113126086E291E0F5D8F7011082DF91CF911F91CA
S11312700F91FF90EF90DF90BF90AF909F908F9071
S11312807F906F905F904F9008952F923F924F926E
S11312905F926F927F928F929F92AF92BF92CF9202
S11312A0DF92EF92FF920F931F93CF93DF934C0142
S11312B0EB01142FA22E232EB02E3E2CCB01CFD81F
S11312C02C01612C712C1A9BFECF86E291E0C4D8CC
S11312D081E0F40180838DB58FED8EBD2F98279A20
S11312E073016201C30CD11CE11CF11C0DB407FE97
S11312F002C01A9909C0CE01B2D8A0E0B0E0C81665
S1131300D906EA06FB0690F71EBD73016201C30C01
S1131310D11CE11CF11C0DB407FE02C01A9909C0CE
S1131320CE019DD8A0E0B0E0C816D906EA06FB06B7
S113133090F7BEBCBB2009F10A2D122DC8018B0DFC
S1131340911D5C0173016201C30CD11CE11CF11CF1
S11313500DB407FE02C01A9909C0CE0180D8A0E0DE
S1131360B0E0C816D906EA06FB0690F7F8018191A9
S11313708F018EBDEA15FB0559F7430C511C611C06
S1131380711C0DB407FE02C01A9909C0CE0167D8BA
S1131390A0E0B0E0481659066A067B0690F72F983D
S11313A0279886E291E054D8F4011082DF91CF911E
S11313B01F910F91FF90EF90DF90CF90BF90AF906F
S11313C09F908F907F906F905F904F903F902F9061
S11313D008950CD0E6C0DED040F0D5D030F021F432
S11313E05F3F19F0C7C0511110C1CAC0EBD098F3C8
S11313F09923C9F35523B1F3951B550BBB27AA2792
S113140062177307840738F09F5F5F4F220F331F03
S1131410441FAA1FA9F333D00E2E3AF0E0E830D0CF
S113142091505040E695001CCAF729D0FE2F27D0D2
S1131430660F771F881FBB1F261737074807AB07A0
S1131440B0E809F0BB0B802DBF01FF2793585F4F15
S11314502AF09E3F510568F08DC0D7C05F3FECF382
S1131460983EDCF3869577956795B795F7959F5FDA
S1131470C9F7880F911D9695879597F90895E1E02E
S1131480660F771F881FBB1F621773078407BA078D
S113149020F0621B730B840BBA0BEE1F88F7E095E8
S11314A0089598D088F09F5790F0B92F9927B75195
S11314B0A0F0D1F0660F771F881F991F1AF0BA9514
S11314C0C9F712C0B13081F09FD0B1E008959CC03B
S11314D0672F782F8827B85F39F0B93FCCF386950A
S11314E077956795B395D9F73EF490958095709567
S11314F061957F4F8F4F9F4F0895E89409C097FBE4
S11315003EF490958095709561957F4F8F4F9F4FD6
S11315109923A9F0F92F96E9BB279395F69587951A
S113152077956795B795F111F8CFFAF4BB0F11F4DD
S113153060FF1BC06F5F7F4F8F4F9F4F16C0882384
S113154011F096E911C0772321F09EE8872F762FBA
S113155005C0662371F096E8862F70E060E02AF0FB
S11315609A95660F771F881FDAF7880F96958795E7
S113157097F9089597F99F6780E870E060E008950F
S11315809FEF80EC089500240A9416161706180697
S11315900906089500240A94121613061406050673
S11315A00895092E0394000C11F4882352F0BB0F04
S11315B040F4BF2B11F460FF04C06F5F7F4F8F4F67
S11315C09F4F089557FD9058440F551F59F05F3FA2
S11315D071F04795880F97FB991F61F09F3F79F051
S11315E087950895121613061406551FF2CF4695D3
S11315F0F1DF08C0161617061806991FF1CF869555
S11316007105610508940895E894BB276627772738
S1131610CB0197F908950AD0C4CFB5DF28F0BADF1B
S113162018F0952309F0A6CFABCFEFCFCBDFA8F30B
S11316309923D9F35523C9F3950F50E0551FAA27D1
S1131640EE27FF27BB2700240894679520F4E20FB8
S1131650F31FB41F0A1E220F331F441FAA1F6695CF
S1131660A9F7779530F4F30FB41F0A1E121E08F47D
S11316706395330F441FAA1F221F769599F7879508
S113168020F4B40F0A1E121E631F440FAA1F221F48
S1131690331F8695A9F7862F712D602D11249F572E
S11316A050408AF0E1F088234AF0EE0FFF1FBB1F81
S11316B0661F771F881F91505040A9F79E3F510520
S11316C070F058CFA2CF5F3FECF3983EDCF38695E1
S11316D077956795B795F795E7959F5FC1F7FE2BCB
S11316E0880F911D9695879597F90895F894FFCFE3
S11316F0011121314151041424344454071727376C
S111170047570A1A2A3A4A5A0D1D2D3D4D5DCF
S9030000FC
