S01400004C65642072696E67204143452E7372656342
S113000093C0ADC0ACC0DDC4AAC0A9C0A8C0A7C07D
S1130010A6C0A5C0A4C0A3C011C2A1C0A0C09FC057
S11300209EC09DC09CC09BC0FF38283718FF273452
S11300300839FFFF17FF240D78FF2936FFFFFF352E
S113004007FFFFFF14137D126869FFFF196A26FF7B
S1130050FF3AFFFFFFFF250E7776FFFFFF6BFFFFE1
S113006004FF03FF6D6C020158FF59FFFFFFFF33CC
S1130070090A5AFF160BFF0CFFFF2A2BFFFFFFFF95
S1130080FFFFFFFF15FF7E7F67FF66FFFFFFFFFF98
S1130090FFFF5BFFFFFFFFFF7475FFFF73FFFFFFB1
S11300A05D5E5CFF725F71004847FF4449FFFF1DBE
S11300B0FF46FF45FFFF232279FF7AFF4AFFFF1E19
S11300C006FF7BFFFFFF7C11FFFFFF431AFF1B1C92
S11300D0FF3BFFFFFFFFFF0FFFFFFFFFFFFFFFFFE0
S11300E005FFFFFF6EFF6F105754FF2D5655FF326B
S11300F0FFFFFF2EFFFFFF21FF53FF2C4BFFFF1FCE
S1130100FFFFFFFFFFFFFF20643D6542FF3EFF311D
S1130110633CFF2FFFFFFF304D524E414C3FFF40E9
S113012062514F50616070FF11241FBECFEFD2E0C7
S1130130DEBFCDBF11E0A0E0B1E0E0E7FCE002C02B
S113014005900D92AE31B107D9F721E0AEE1B1E0EF
S113015001C01D92A93FB207E1F78ED387C550CFE6
S1130160CF92DF92EF92FF920F931F93CF93DF937F
S113017084B18C7F84B987B1887787B988E08AB9DC
S11301805B9A5B9800000000000046B196B1C6B0CF
S1130190D6B039B129B183B1F3B1042E000C550B9B
S11301A0409550954427550F441F55275695542F75
S11301B0442757954795E92FE17091E0EE2EE92603
S11301C0F12C0024F694E7940794F694E7940794AA
S11301D0FE2CE02CE42AF52AF695F9270F2F01705E
S11301E010E0F701E02BF12B5C2D56955927517047
S11301F0C52F40E0D42FCC0FDD1FC295D295D07F00
S1130200DC27C07FDC27EC2BFD2B4D2D4695469536
S11302104927A42FA170B0E0A295B295B07FBA2768
S1130220A07FBA27EA2BFB2B32953695369533708F
S11302303927632F617070E0660F771F660F771F91
S1130240660F771FE62BF72B022E000C330B20953D
S113025030952227330F221F3327220F331F220FFB
S1130260331FE22BF32B81709827892F90E0880F9E
S1130270991FE82BF92BE85DFF4F84915B9A8093DB
S11302802501DF91CF911F910F91FF90EF90DF90A7
S1130290CF900895CF92DF92EF92FF920F931F9326
S11302A0CF93DF935B9800000000000046B196B145
S11302B0C6B0D6B039B129B183B1F3B1042E000C64
S11302C0550B409550954427550F441F5527569577
S11302D0542F442757954795E92FE17091E0EE2E6E
S11302E0E926F12C0024F694E7940794F694E79415
S11302F00794FE2CE02CE42AF52AF695F9270F2F13
S1130300017010E0F701E02BF12B5C2D5695592775
S11303105170C52F40E0D42FCC0FDD1FC295D2956C
S1130320D07FDC27C07FDC27EC2BFD2B4D2D4695A1
S113033046954927A42FA170B0E0A295B295B07F4D
S1130340BA27A07FBA27EA2BFB2B32953695369530
S113035033703927632F617070E0660F771F660F63
S1130360771F660F771FE62BF72B022E000C330B3B
S1130370209530952227330F221F3327220F331F56
S1130380220F331FE22BF32B81709827892F90E0E3
S1130390880F991FE82BF92BE85DFF4F84915B9A36
S11303A0DF91CF911F910F91FF90EF90DF90CF904D
S11303B00895DC01EC91DB012C91E637B8F02A308A
S11303C0F8F030E02E1B3109DA01ED91FC91119720
S11303D0E20FF31FED93FC93FB014081DC014C938E
S11303E0232B19F081E0809322010895EF3048F720
S11303F02F3638F330E02E1B310920583109E4CF71
S113040030E02E1B310920583F4FDECF8CE085BDF4
S11304108EE187BD82E080936E0016BC81E08093FC
S11304202901089581E080932901089510922901FA
S1130430089580911E0190911F01089578941F9250
S11304400F920FB60F9211242F933F934F935F9304
S11304506F937F938F939F93AF93BF93EF93FF9388
S113046080916E008D7F80936E0080912301813096
S113047099F18A3020F080912901811124C0809162
S11304806E00826080936E00809123018F5F809361
S1130490230180911E0190911F01019690931F01E9
S11304A080931E01FF91EF91BF91AF919F918F9126
S11304B07F916F915F914F913F912F910F900FBE5C
S11304C00F901F9018958091270190912801A5D035
S11304D081E080932301D3CF80912901882379F28D
S11304E0D9DE8093260147E251E066E271E085E2BD
S11304F091E05FDFC4CF82E08093B800E9EBF0E0E5
S11305008081808308959091BC00946A9093BC008C
S11305109091BC0097FFFCCF9091B900987F9830E0
S113052039F09091B900987F903111F081E00895ED
S1130530880F682B6093BB0084E88093BC00809193
S1130540BC0087FFFCCF8091B900887F883129F0F7
S11305508091B900887F803449F780E0089584E968
S11305608093BC0008958093BB0084E88093BC0012
S11305708091BC0087FFFCCF9091B900987F81E007
S1130580983209F0089580E00895CF9360E084E301
S1130590BADF8823C1F160E084E3B5DF882349F141
S11305A060E084E3B0DF8823D1F0C0E903C0CF5F0B
S11305B0CF3989F060E084E3A6DF8111F8CF8C2F76
S11305C0D2DF8111F4CF8CE3CEDF8111F0CFC7DF0E
S11305D0CF5FCF3979F73B9A439ACF91089581EA57
S11305E0C2DF8111E2CF8EE1BEDF8111DECFB7DF42
S11305F0DCCF80EAB8DF8111D3CF81E0B4DF811191
S1130600CFCFADDFCDCF8FECAEDF8111C4CF8EEA7B
S1130610AADF8111C0CFA3DFBECF7F928F929F92BA
S1130620AF92BF92CF92DF92EF92FF920F931F93FC
S1130630CF93DF9300D000D0CDB7DEB7C82ED12C36
S1130640760191E0E91AF108E1EEE80FEA838D53AF
S1130650898300E011E01C821B82912C5601FEE18B
S1130660AF1AB1088CE3C81AD10870EC872E1DC0EC
S11306709A819F3148F510922A0180922B011092A1
S11306802C01F801908060E084E33DDF882309F4C5
S1130690AAC060E3962E8B819C8101969C838B83F8
S11306A00F5F1F4F4E9709F47DC0EB81FC81EE165E
S11306B0FF062CF0FFE1EF16F1040CF454C08B811B
S11306C09C818A159B05A4F28B819C818C159D05C8
S11306D0A4F499819F3188F410922A0110922B017D
S11306E080922C01F801908060E084E30CDF882381
S11306F009F46AC05CE0952ECECF892D82958F7067
S113070090E000249695879507949695879507948D
S1130710982F802D80932A01292D2695269530E047
S11307200024369527950794369527950794322FFC
S1130730202D20932B0110922C01F801708060E091
S113074084E3E1DE8111A7CF872D0DDF8111A3CFD3
S113075080912A0108DF80912B0105DF80912C0113
S113076002DFFDDE98CF80922A0110922B011092B5
S11307702C01F801908060E084E3C5DE882311F049
S1130780912C89CF892DEFDE8111FACF80912A0136
S1130790EADE80912B01E7DE80912C01E4DEDFDECE
S11307A0912C79CF0F900F900F900F90DF91CF91F4
S11307B01F910F91FF90EF90DF90CF90BF90AF907B
S11307C09F908F907F900895892DCDDE811192CFD7
S11307D080912A01C8DE80912B01C5DE80912C0115
S11307E0C2DEBDDE87CF892DBEDE811152CF80915E
S11307F02A01B9DE80912B01B6DE80912C01B3DE93
S1130800AEDE47CFEF92FF920F931F93CF93DF9308
S113081010DEEC018C0108571C4E04C00ADE0817D8
S1130820190718F042D10297CCF31DD17C011BD1DA
S11308308C01C857DC4E04C0FCDDC817D90720F072
S113084034D18E159F05C4F31E141F0464F4E8010B
S1130850CE5CDE4F0E0D1F1D0E5C1E4F04D189931E
S1130860C017D107D9F780E090E0DF91CF911F91B5
S11308700F91FF90EF90089573DCC8DD3CDE85DEB8
S1130880D6D0E6D078942FEF80E792E021508040D4
S11308909040E1F700C000000ED08091220188232F
S11308A0D9F31092220160912701709128014AE046
S11308B081E0FFD0F1CFCF93DF938091300181119C
S11308C005C080E090E0DF91CF91089595B180E478
S11308D0892785B9AEDDEC0181E080933101C3D075
S11308E08531910509F45AC0CCF08D3F910509F486
S11308F05BC00CF442C08E3F9105A1F18F3F91057E
S1130900D1F54AE061E08FEFD4D095B180E4892736
S113091085B980E090E0DF91CF9108958130910511
S1130920A9F13CF18230910591F0449721F5C85723
S1130930DC4E04C07EDDC817D907E0F1B6D0892BA0
S1130940C9F391D09093280180932701DECFC85733
S1130950DC4E04C06EDDC817D90760F1A6D0892B20
S1130960C9F3EFCF24E644E66FE871E08EEFFED0E2
S1130970CCCF892B51F26CD0C8CF4697E1F724E64F
S11309804AE562E371E086E1F1D0BFCF60912701CF
S1130990709128014AE081E08CD0B7CF33DF44E680
S11309A06AEA85E686D0B1CF80D044E6682F8DEF21
S11309B080D0ABCF8FEF9FEF86CFF8948EE12DDE02
S11309C0FFCF1F920F920FB60F9211248F939F9314
S11309D0EF93FF931A9B1EC080912D0181111AC0C1
S11309E09EB5809130018336A1F0E0912E01F0E0B4
S11309F0E157FE4F908380912E018F5F80932E01EB
S1130A00809130018F5F8093300180912E01833675
S1130A1051F01EBCFF91EF919F918F910F900FBEEB
S1130A200F901F90189510922E011EBCF3CF27989B
S1130A302F98249A269AE8E6F0E0808181608083EA
S1130A40EBE6F0E080818460808380E48CBD0895CF
S1130A5010922F0110922E0110923001EFE8F1E074
S1130A60108211820895809130018823D9F0E09199
S1130A702F01F0E0E157FE4F208130E080912F01FB
S1130A808F5F80932F0180913001815080933001DA
S1130A9080912F01833611F0C901089510922F011E
S1130AA0C90108958FEF9FEF08958091300190E080
S1130AB008958F929F92AF92BF92CF92DF92EF925E
S1130AC0FF92CF93DF93B82ED62FC42F1F9BFECF58
S1130AD081E080932D01809168008E7F809368006F
S1130AE010922901A6DC6C01E12CF12C8DB5BEBC61
S1130AF02F98279A460157018C0E911CA11CB11CFA
S1130B000DB407FE02C01A9908C093DCA0E0B0E05F
S1130B1088169906AA06BB0698F7DEBDCC0ED11C32
S1130B20E11CF11C0DB407FE02C01A9908C081DC57
S1130B30A0E0B0E0C816D906EA06FB0698F72F989D
S1130B4027988091680081608093680081E0809399
S1130B50290110922D01DF91CF91FF90EF90DF904A
S1130B60CF90BF90AF909F908F900895BF92CF92F7
S1130B70DF92EF92FF920F931F93CF93DF93D82FBF
S1130B80B62E072F142FC22F1F9BFECF81E0809318
S1130B902D014CDC809168008E7F8093680049DCD5
S1130BA02DB5DEBD2F98279A6C01E12CF12CCC0ECB
S1130BB0D11CE11CF11C0DB407FE02C01A9908C037
S1130BC038DCA0E0B0E0C816D906EA06FB0698F7C0
S1130BD01EBD1123C1F0CB2DD02FCE01810F911D4D
S1130BE08C010DB407FE02C01A9908C022DCA0E0F3
S1130BF0B0E0C816D906EA06FB0698F789918EBDBF
S1130C00C017D10771F70DB407FE02C01A9908C0C6
S1130C1010DCA0E0B0E0C816D906EA06FB0698F797
S1130C202F98279880916800816080936800FADB90
S1130C3010922D01FEDBA0E0B0E0C816D906EA064A
S1130C40FB0650F0DF91CF911F910F91FF90EF9031
S1130C50DF90CF90BF900895DF91CF911F910F91B6
S1130C60FF90EF90DF90CF90BF90A7CEF894FFCF86
S1130C7001112131415104142434445407172737F6
S1110C8047570A1A2A3A4A5A0D1D2D3D4D5D5A
S9030000FC
