S01400004C65642072696E67204143452E7372656342
S113000093C0ADC0ACC014C5AAC0A9C0A8C0A7C045
S1130010A6C0A5C0A4C0A3C011C2A1C0A0C09FC057
S11300209EC09DC09CC09BC0FF38283718FF273452
S11300300839FFFF17FF240D78FF2936FFFFFF352E
S113004007FFFFFF14137D126869FFFF196A26FF7B
S1130050FF3AFFFFFFFF250E7776FFFFFF6BFFFFE1
S113006004FF03FF6D6C020158FF59FFFFFFFF33CC
S1130070090A5AFF160BFF0CFFFF2A2BFFFFFFFF95
S1130080FFFFFFFF15FF7E7F67FF66FFFFFFFFFF98
S1130090FFFF5BFFFFFFFFFF7475FFFF73FFFFFFB1
S11300A05D5E5CFF725F71004847FF4449FFFF1DBE
S11300B0FF46FF45FFFF232279FF7AFF4AFFFF1E19
S11300C006FF7BFFFFFF7C11FFFFFF431AFF1B1C92
S11300D0FF3BFFFFFFFFFF0FFFFFFFFFFFFFFFFFE0
S11300E005FFFFFF6EFF6F105754FF2D5655FF326B
S11300F0FFFFFF2EFFFFFF21FF53FF2C4BFFFF1FCE
S1130100FFFFFFFFFFFFFF20643D6542FF3EFF311D
S1130110633CFF2FFFFFFF304D524E414C3FFF40E9
S113012062514F50616070FF11241FBECFEFD2E0C7
S1130130DEBFCDBF11E0A0E0B1E0E6EEFCE002C01E
S113014005900D92AE31B107D9F721E0AEE1B1E0EF
S113015001C01D92A73FB207E1F7A7D3C2C550CF94
S1130160CF92DF92EF92FF920F931F93CF93DF937F
S113017084B18C7F84B987B1887787B988E08AB9DC
S11301805B9A5B9800000000000046B196B1C6B0CF
S1130190D6B039B129B183B1F3B1042E000C550B9B
S11301A0409550954427550F441F55275695542F75
S11301B0442757954795E92FE17091E0EE2EE92603
S11301C0F12C0024F694E7940794F694E7940794AA
S11301D0FE2CE02CE42AF52AF695F9270F2F01705E
S11301E010E0F701E02BF12B5C2D56955927517047
S11301F0C52F40E0D42FCC0FDD1FC295D295D07F00
S1130200DC27C07FDC27EC2BFD2B4D2D4695469536
S11302104927A42FA170B0E0A295B295B07FBA2768
S1130220A07FBA27EA2BFB2B32953695369533708F
S11302303927632F617070E0660F771F660F771F91
S1130240660F771FE62BF72B022E000C330B20953D
S113025030952227330F221F3327220F331F220FFB
S1130260331FE22BF32B81709827892F90E0880F9E
S1130270991FE82BF92BE85DFF4F84915B9A8093DB
S11302802501DF91CF911F910F91FF90EF90DF90A7
S1130290CF900895CF92DF92EF92FF920F931F9326
S11302A0CF93DF935B9800000000000046B196B145
S11302B0C6B0D6B039B129B183B1F3B1042E000C64
S11302C0550B409550954427550F441F5527569577
S11302D0542F442757954795E92FE17091E0EE2E6E
S11302E0E926F12C0024F694E7940794F694E79415
S11302F00794FE2CE02CE42AF52AF695F9270F2F13
S1130300017010E0F701E02BF12B5C2D5695592775
S11303105170C52F40E0D42FCC0FDD1FC295D2956C
S1130320D07FDC27C07FDC27EC2BFD2B4D2D4695A1
S113033046954927A42FA170B0E0A295B295B07F4D
S1130340BA27A07FBA27EA2BFB2B32953695369530
S113035033703927632F617070E0660F771F660F63
S1130360771F660F771FE62BF72B022E000C330B3B
S1130370209530952227330F221F3327220F331F56
S1130380220F331FE22BF32B81709827892F90E0E3
S1130390880F991FE82BF92BE85DFF4F84915B9A36
S11303A0DF91CF911F910F91FF90EF90DF90CF904D
S11303B00895DC01EC91DB012C91E637B8F02A308A
S11303C0F8F030E02E1B3109DA01ED91FC91119720
S11303D0E20FF31FED93FC93FB014081DC014C938E
S11303E0232B19F081E0809322010895EF3048F720
S11303F02F3638F330E02E1B310920583109E4CF71
S113040030E02E1B310920583F4FDECF8CE085BDF4
S11304108EE187BD82E080936E0016BC81E08093FC
S11304202901089581E080932901089510922901FA
S1130430089580911E0190911F01089578941F9250
S11304400F920FB60F9211242F933F934F935F9304
S11304506F937F938F939F93AF93BF93EF93FF9388
S113046080916E008D7F80936E0080912301813096
S113047099F18A3068F080912901882349F08091AC
S1130480F3018823C1F18130E1F181E080932301FC
S113049080916E00826080936E00809123018F5F53
S11304A08093230180911E0190911F0101969093E6
S11304B01F0180931E01FF91EF91BF91AF919F9116
S11304C08F917F916F915F914F913F912F910F90F9
S11304D00FBE0F901F901895809129018823C1F2B7
S11304E0D9DE8093260147E251E066E271E085E2BD
S11304F091E05FDFCDCF8091270190912801DCD07E
S1130500C4CF83E991E093D0C0CF82E08093B80058
S1130510E9EBF0E08081808308959091BC00946AB7
S11305209093BC009091BC0097FFFCCF9091B900D0
S1130530987F983039F09091B900987F903111F0FC
S113054081E00895880F682B6093BB0084E8809352
S1130550BC008091BC0087FFFCCF8091B900887FEC
S1130560883129F08091B900887F803449F780E090
S1130570089584E98093BC0008958093BB0084E8C7
S11305808093BC008091BC0087FFFCCF9091B900A0
S1130590987F81E0983209F0089580E00895CF9320
S11305A060E084E3BADF8823C1F160E084E3B5DF6F
S11305B0882349F160E084E3B0DF8823D1F0C0E907
S11305C003C0CF5FCF3989F060E084E3A6DF8111F7
S11305D0F8CF8C2FD2DF8111F4CF8CE3CEDF8111E1
S11305E0F0CFC7DFCF5FCF3979F73B9A439ACF91EA
S11305F0089581EAC2DF8111E2CF8EE1BEDF81116D
S1130600DECFB7DFDCCF80EAB8DF8111D3CF81E062
S1130610B4DF8111CFCFADDFCDCF8FECAEDF811151
S1130620C4CF8EEAAADF8111C0CFA3DFBECF8F92E1
S11306309F92BF92CF92DF92EF92FF920F931F93FC
S1130640CF93DF9320E0C22E21E0D22E7C0136E04E
S1130650832E31E0932EF601C1916F0160E084E3B3
S11306605CDF811126C08C2F88DFB82E811121C058
S11306708701025E1F4FE70188817FDF89817DDF6B
S11306808A817BDF2696C017D107B1F7FFEFEF1AF7
S1130690FF0A8C149D04F9F68B2DDF91CF911F91E5
S11306A00F91FF90EF90DF90CF90BF909F908F902D
S11306B00895BB24B394F0CF8F929F92AF92BF92D0
S11306C0CF92DF92EF92FF920F931F93CF93DF931A
S11306D000D000D0CDB7DEB7A82EB12C750191E0C3
S11306E0E91AF108E1EEE80FEA838D53898300E00B
S11306F011E01C821B82C12C4501FEE18F1A910876
S11307008CE3A81AB10817C09A819F3110F5F8013B
S1130710D08060E084E301DF882309F47AC090E3A9
S1130720C92E8B819C8101969C838B830F5F1F4F05
S11307304E9709F452C0EB81FC81EE16FF0624F0BB
S1130740FFE1EF16F1049CF18B819C8188159905DA
S1130750DCF28B819C818A159B0574F499819F310D
S113076058F4F801D08060E084E3D7DE882309F4EC
S113077045C08CE0C82ED5CFF801D08060E084E37A
S1130780CCDE8111CECF8D2DF8DE8111CACF8C2D18
S113079082958F708295880F880F807CEEDE8C2D79
S11307A08295807FEADE80E0E8DEE3DEBACFF801FE
S11307B0D08060E084E3B1DE882311F0C12CB1CF96
S11307C08D2DDBDE8111FACF80ECD7DE80E0D5DE23
S11307D080E0D3DECEDEC12CA4CF0F900F900F901B
S11307E00F90DF91CF911F910F91FF90EF90DF90C9
S11307F0CF90BF90AF909F908F9008958D2DBDDEC8
S11308008111B7CFBADE80E0B8DE80ECB6DEB1DEAF
S1130810B0CF8D2DB2DE811182CFAFDE80ECADDEA4
S113082080E0ABDEA6DE7BCFCF92DF92EF92FF9229
S11308300F931F93CF93DF938C01FBDDEC017C01BD
S113084088E7E81A8CEEF80A04C0F3DDE816F90626
S113085018F062D10297CCF33DD16C013BD17C01FD
S1130860C857DC4E04C0E5DDC817D90720F054D1C1
S11308708C159D05C4F31C141D0464F4E801CE0D0D
S1130880DF1DEC0CFD1C0E0D1F1D24D18993C01718
S1130890D107D9F780E090E0DF91CF911F910F91BC
S11308A0FF90EF90DF90CF90089514BE0FB6F894A8
S11308B0A895809160008861809360001092600028
S11308C00FBE4EDCA3DD21DE6ADEE8D0F8D07894DA
S11308D02FEF80E792E0215080409040E1F700C084
S11308E000000ED0809122018823D9F310922201B6
S11308F060912701709128014AE081E011D1F1CF84
S1130900CF93DF9380912D01811105C080E090E0A9
S1130910DF91CF91089595B180E4892785B989DD68
S1130920EC0181E080932E01D5D08531910509F445
S113093056C0CCF08D3F910509F440C00CF044C082
S11309408631910509F44FC08C3F910509F05BC0D5
S113095098E088E10FB6F894A895809360000FBEE4
S113096090936000FFCF81309105C1F00CF449C031
S11309708230910509F449C0449709F044C0C8572E
S1130980DC4E05C056DDC817D90708F44EC0C4D0E4
S1130990892BC1F39FD08093F30107C06091270195
S11309A0709128014AE081E0BBD095B180E48927A9
S11309B085B980E090E0DF91CF910895ADD044E611
S11309C0682F8DEFADD0F1CF8E3F910599F08F3F19
S11309D09105C9F44AE061E08FEFA2D0E6CF83E944
S11309E091E022DFE2CF24E64AE563E971E086E1A3
S11309F0F4D0DBCF24E644E66FE271E08EEFEDD075
S1130A00D4CF892B91F25BD0D0CFC857DC4E04C031
S1130A1010DDC817D90748F07FD0892BC9F35AD005
S1130A209093280180932701C0CF8FEF9FEF70CF61
S1130A301F920F920FB60F9211248F939F93EF93EF
S1130A40FF931A9B1EC080912A0181111AC09EB582
S1130A5080912D018336A1F0E0912B01F0E0E15D5E
S1130A60FE4F908380912B018F5F80932B018091A7
S1130A702D018F5F80932D0180912B01833651F0DE
S1130A801EBCFF91EF919F918F910F900FBE0F901D
S1130A901F90189510922B011EBCF3CF27982F9806
S1130AA0249A269AE8E6F0E0808181608083EBE670
S1130AB0F0E080818460808380E48CBD089510928E
S1130AC02C0110922B0110922D01EFE2F1E0108223
S1130AD01182089580912D018823D9F0E0912C0191
S1130AE0F0E0E15DFE4F208130E080912C018F5FCA
S1130AF080932C0180912D01815080932D01809150
S1130B002C01833611F0C901089510922C01C901FA
S1130B1008958FEF9FEF089580912D0190E008953F
S1130B208F929F92AF92BF92CF92DF92EF92FF92F9
S1130B30CF93DF93B82ED62FC42F1F9BFECF81E017
S1130B4080932A01809168008E7F809368001092C0
S1130B5029016FDC6C01E12CF12C8DB5BEBC2F9802
S1130B60279A460157018C0E911CA11CB11C0DB48F
S1130B7007FE02C01A9908C05CDCA0E0B0E0881649
S1130B809906AA06BB0698F7DEBDCC0ED11CE11C63
S1130B90F11C0DB407FE02C01A9908C04ADCA0E09B
S1130BA0B0E0C816D906EA06FB0698F72F982798EE
S1130BB08091680081608093680081E080932901BE
S1130BC010922A01DF91CF91FF90EF90DF90CF90A8
S1130BD0BF90AF909F908F9008956F927F928F9265
S1130BE09F92AF92BF92CF92DF92EF92FF920F93B8
S1130BF01F93CF93DF93C82F662E072F142F722EC7
S1130C001F9BFECF81E080932A0110DC8091680055
S1130C108E7F809368000DDC4C01A12CB12C8DB526
S1130C20CEBD2F98279A75016401C70CD11CE11C15
S1130C30F11C0DB407FE02C01A9908C0FADBA0E04B
S1130C40B0E0C816D906EA06FB0698F71EBD1123C4
S1130C50F1F0C62DD02FCE01810F911D8C017501AD
S1130C606401C70CD11CE11CF11C0DB407FE02C0C9
S1130C701A9908C0DEDBA0E0B0E0C816D906EA067F
S1130C80FB0698F789918EBDC017D10771F7870CC1
S1130C90911CA11CB11C0DB407FE02C01A9908C016
S1130CA0C8DBA0E0B0E088169906AA06BB0698F750
S1130CB02F98279880916800816080936800B2DB48
S1130CC010922A01DF91CF911F910F91FF90EF9025
S1130CD0DF90CF90BF90AF909F908F907F906F9058
S1090CE00895F894FFCF13
S1130CE60111213141510414243444540717273780
S1110CF647570A1A2A3A4A5A0D1D2D3D4D5DE4
S9030000FC
