S01400004C65642072696E67204143452E7372656342
S113000093C0ADC0ACC021C4AAC0A9C0A8C0A7C039
S1130010A6C0A5C0A4C0A3C051C1A1C0A0C09FC018
S11300209EC09DC09CC09BC0FF38283718FF273452
S11300300839FFFF17FF240D78FF2936FFFFFF352E
S113004007FFFFFF14137D126869FFFF196A26FF7B
S1130050FF3AFFFFFFFF250E7776FFFFFF6BFFFFE1
S113006004FF03FF6D6C020158FF59FFFFFFFF33CC
S1130070090A5AFF160BFF0CFFFF2A2BFFFFFFFF95
S1130080FFFFFFFF15FF7E7F67FF66FFFFFFFFFF98
S1130090FFFF5BFFFFFFFFFF7475FFFF73FFFFFFB1
S11300A05D5E5CFF725F71004847FF4449FFFF1DBE
S11300B0FF46FF45FFFF232279FF7AFF4AFFFF1E19
S11300C006FF7BFFFFFF7C11FFFFFF431AFF1B1C92
S11300D0FF3BFFFFFFFFFF0FFFFFFFFFFFFFFFFFE0
S11300E005FFFFFF6EFF6F105754FF2D5655FF326B
S11300F0FFFFFF2EFFFFFF21FF53FF2C4BFFFF1FCE
S1130100FFFFFFFFFFFFFF20643D6542FF3EFF311D
S1130110633CFF2FFFFFFF304D524E414C3FFF40E9
S113012062514F50616070FF11241FBECFEFD2E0C7
S1130130DEBFCDBF11E0A0E0B1E0EEECF9E002C01B
S113014005900D92AE31B107D9F721E0AEE1B1E0EF
S113015001C01D92A73EB207E1F7FFD236C450CFCB
S1130160CF92DF92EF92FF920F931F93CF93DF937F
S113017084B18C7F84B987B1887787B988E08AB9DC
S11301805B9A8DE085BD8EE487BD82E080936E002E
S113019016BC5B9800000000000046B196B1C6B0E2
S11301A0D6B039B129B183B1F3B1042E000C550B8B
S11301B0409550954427550F441F55275695542F65
S11301C0442757954795E92FE17091E0EE2EE926F3
S11301D0F12C0024F694E7940794F694E79407949A
S11301E0FE2CE02CE42AF52AF695F9270F2F01704E
S11301F010E0F701E02BF12B5C2D56955927517037
S1130200C52F40E0D42FCC0FDD1FC295D295D07FEF
S1130210DC27C07FDC27EC2BFD2B4D2D4695469526
S11302204927A42FA170B0E0A295B295B07FBA2758
S1130230A07FBA27EA2BFB2B32953695369533707F
S11302403927632F617070E0660F771F660F771F81
S1130250660F771FE62BF72B022E000C330B20952D
S113026030952227330F221F3327220F331F220FEB
S1130270331FE22BF32B81709827892F90E0880F8E
S1130280991FE82BF92BE85DFF4F84915B9A8093CB
S11302902101DF91CF911F910F91FF90EF90DF909B
S11302A0CF900895EEE6F0E0808182608083089527
S11302B0EEE6F0E080818D7F808308951F920F9297
S11302C00FB60F921124CF92DF92EF92FF920F9309
S11302D01F932F933F934F935F936F937F938F93CA
S11302E09F93AF93BF93CF93DF93EF93FF9380914B
S11302F01F01909120010097E1F0019709F4D0C00B
S1130300FF91EF91DF91CF91BF91AF919F918F9129
S11303107F916F915F914F913F912F911F910F9119
S1130320FF90EF90DF90CF900F900FBE0F901F9033
S113033018955B9800000000000046B196B1C6B065
S1130340D6B039B129B183B1F3B1042E000C550BE9
S1130350409550954427550F441F55275695542FC3
S1130360442757954795E92FE17091E0EE2EE92651
S1130370F12C0024F694E7940794F694E7940794F8
S1130380FE2CE02CE42AF52AF695F9270F2F0170AC
S113039010E0F701E02BF12B5C2D56955927517095
S11303A0C52F40E0D42FCC0FDD1FC295D295D07F4E
S11303B0DC27C07FDC27EC2BFD2B4D2D4695469585
S11303C04927A42FA170B0E0A295B295B07FBA27B7
S11303D0A07FBA27EA2BFB2B3295369536953370DE
S11303E03927632F617070E0660F771F660F771FE0
S11303F0660F771FE62BF72B022E000C330B20958C
S113040030952227330F221F3327220F331F220F49
S1130410331FE22BF32B81709827892F90E0880FEC
S1130420991FE82BF92BE85DFF4F24915B9A2093E9
S1130430220130912101363718F12A3060F5822FDC
S113044090E0831B910980589F4F40912301509164
S11304502401480F591F50932401409323012093F2
S11304602101892B19F081E080931E0180911F01E5
S11304709091200101969093200180931F0140CF19
S11304803F3048F42F3638F0822F90E0831B9109D7
S113049080589109DACF822F90E0831B9109D5CF40
S11304A08091230197D01092200110921F0128CF30
S11304B082E08093B800E9EBF0E0808180830895C6
S11304C09091BC00946A9093BC009091BC0097FFFB
S11304D0FCCF9091B900987F983039F09091B90091
S11304E0987F903111F081E00895880F682B609314
S11304F0BB0084E88093BC008091BC0087FFFCCFE4
S11305008091B900887F883129F08091B900887F73
S1130510803449F780E0089584E98093BC0008950D
S11305208093BB0084E88093BC008091BC0087FF6B
S1130530FCCF9091B900987F81E0983209F008953A
S113054080E00895CF9360E084E3BADF8823C1F1AB
S113055060E084E3B5DF882349F160E084E3B0DF41
S11305608823D1F0C0E903C0CF5FCF3989F060E0C0
S113057084E3A6DF8111F8CF8C2FD2DF8111F4CF71
S11305808CE3CEDF8111F0CFC7DFCF5FCF3979F7AE
S11305903B9A439ACF91089581EAC2DF8111E2CF59
S11305A08EE1BEDF8111DECFB7DFDCCF80EAB8DFBA
S11305B08111D3CF81E0B4DF8111CFCFADDFCDCFB7
S11305C08FECAEDF8111C4CF8EEAAADF8111C0CFD8
S11305D0A3DFBECF8F929F92AF92BF92CF92DF9252
S11305E0EF92FF920F931F93CF93DF9300D000D02D
S11305F0CDB7DEB7E82EF12C92EE980F9A838C5388
S1130600898300E011E01C821B82C12C5701EDE1BB
S1130610AE1AB1084701FBE38F1A91088B819C81C4
S113062018C09A819F3110F5F801D08060E084E30E
S113063047DF882309F486C090E3C92E8B819C810F
S113064001969C838B830F5F1F4F8E31910509F4B4
S11306505CC0E816F9062CF09FE1E916F1040CF4ED
S11306603FC08B819C818A159B05DCF28B819C8128
S11306708815990574F499819F3158F4F801D08054
S113068060E084E31DDF882309F450C08CE0C82EA9
S1130690D5CFF801D08060E084E312DF8111CECFA2
S11306A08D2D3EDF8111CACF3BDF8C2D869586953B
S11306B08370982F990F990F890F982F9295907F97
S11306C0890F2EDF8C2D82958F70982F990F990F9B
S11306D0890F982F9295907F890F22DF1DDFAECF6F
S11306E0F801D08060E084E3EBDE882311F0C12CB4
S11306F0A5CF8D2D15DF8111FACF12DF80E010DF39
S11307008FEF0EDF09DFC12C99CF0F900F900F9060
S11307100F90DF91CF911F910F91FF90EF90DF9099
S1130720CF90BF90AF909F908F9008958D2DF8DE5D
S11307308111ACCF8FEFF4DE80E0F2DE80E0F0DEFA
S1130740EBDEA4CF8D2DECDE811176CFE9DE8FEFC9
S1130750E7DE80E0E5DEE0DE6FCFCF93DF9300D00D
S113076000D0CDB7DEB7FCDCA3DEECDEA5D0B5D07F
S113077078949EDD8AE0882E94E1992E2EE1A22EB3
S113078038E2B32E0AC04E9709F44DC0A6D08ADDD4
S113079089DD80911E01811151C0809182018823DD
S11307A0B9F386DD8FEC97E00197F1F700C0000004
S11307B09FD08F30910539F780918201811101C05A
S11307C0FFCF96D06C0180918201811101C0FFCFCF
S11307D08FD02091820130E0C216D30609F0FFCFFA
S11307E0D0922401C0922301EBE5CE16D1048CF4FF
S11307F08C159D0574F48C010B5D1E4FC6018B5D39
S11308009E4F7C0175D0F80181938F01EE15FF0591
S1130810C9F74C2D65E271E084E1A8D060918201B2
S11308208AE083D0B3CF89829A82AB82BC8244E0CF
S1130830BE016F5F7F4F84E199D0A8CF60912301FF
S11308408AE073D010921E01A8CF1F920F920FB6A8
S11308500F9211242F938F939F93EF93FF931A9BDF
S113086002C01F990AC0FF91EF919F918F912F9120
S11308700F900FBE0F901F90189580917F018111EA
S1130880F2CFF8942EB590918201943679F080914C
S11308908001E82FF0E0ED57FE4F20838F5F8093B7
S11308A080019F5F90938201843619F01EBC789476
S11308B0DACF10928001FACF27982F98249A269A9B
S11308C0E8E6F0E0808181608083EBE6F0E08081FF
S11308D08460808380E48CBD08951092810110921D
S11308E0800110928201E3E8F1E010821182089500
S11308F0909182019923B1F080918101E82FF0E079
S1130900ED57FE4F208130E08F5F8093810191503D
S113091090938201843611F0C901089510928101E7
S1130920C90108958FEF9FEF089595E89A95F1F71F
S1130930000090917F019111FFCF91E090937F018E
S11309409DB58EBD2F98279AF8940DB407FEFDCF60
S11309501A9BFBCF6EBD0DB407FEFDCF1A9BFBCFD8
S11309602F982798789410927F01089590917F0191
S11309709111FFCF1F9BFECF91E090937F01F894DC
S11309809DB58EBD2F98279A0DB407FEFDCF1A9BF7
S1130990FBCF4EBD442371F0FB019B01240F311D9D
S11309A00DB407FEFDCF1A9BFBCF81918EBD2E1790
S11309B03F07B1F70DB407FEFDCF1A9BFBCF2F986D
S11109C02798789410927F010895F894FFCF41
S11309CE011121314151041424344454071727379B
S11109DE47570A1A2A3A4A5A0D1D2D3D4D5DFF
S9030000FC
