S01400004C65642072696E67204143452E7372656342
S113000061C07BC07AC06DC178C077C076C075C04E
S113001074C073C072C071C070C06FC06EC06DC058
S11300206CC06BC06AC069C000C201000100050059
S11300300500030000E1000001000F000F000D00A7
S113004000960000020019001A001700127A00003E
S11300500700200021001D00807000000B00230019
S113006023002000004B0000140037003700340048
S1130070403800001E004B004B0048008025000063
S11300803200720072007000C01200006E00E900BD
S1130090E900E60060090000E500D801D801D501B7
S11300A0B0040000D301B403B403B1035802000048
S11300B0B4036707670762072C0100006707DD0EBA
S11300C0DD0EDA0E11241FBECFEFD2E0DEBFCDBFAE
S11300D012E0A0E0B1E0E6E8FBE002C005900D927A
S11300E0AA30B107D9F722E0AAE0B2E001C01D921C
S11300F0A635B207E1F7D7D044C582CF84B18C7F4F
S113010084B987B1887787B988E08AB98BB1886068
S11301108BB90895E82FF0E0E050FF4F80810895F7
S1130120862311F080E0089581E00895CF93DF9352
S11301308BB1877F8BB986B160E8F2DFC82FD0E03E
S1130140D695DC2FCC27D795C79586B161E0E8DF3B
S113015090E0002496958795079496958795079443
S1130160982F802DC82B86B162E0DADF90E0880FEB
S1130170991F82959295907F9827807F9827C82B06
S113018086B164E0CDDF90E082959295907F9827C8
S1130190807F9827C82B89B160E4C2DF90E0880F84
S11301A0991F880F991F880F991FC82B89B160E880
S11301B0B7DF90E0880F991F880F991FC82B83B170
S11301C061E0AEDF90E0880F991FC82B83B162E035
S11301D0A7DF9BB198609BB98C2BDF91CF910895D9
S11301E0CF93DF938BB1877F8BB986B160E898DFBB
S11301F0C82FD0E0D695DC2FCC27D795C79586B1EC
S113020061E08EDF90E0002496958795079496959B
S113021087950794982F802DC82BD92B86B162E03F
S11302207FDF90E0880F991F82959295907F9827A1
S1130230807F9827C82BD92B86B164E071DF90E0CA
S113024082959295907F9827807F9827C82BD92BE9
S113025089B160E465DF90E0880F991F880F991FCA
S1130260880F991FC82BD92B89B160E859DF90E01A
S1130270880F991F880F991FC82BD92B83B161E070
S11302804FDF90E0880F991FC82BD92B83B162E010
S113029047DFC82BC050DF4F88819BB198609BB962
S11302A0DF91CF91089560E875E280E090E07CD022
S11302B025DF96DF1F928F9380E092E09F938F93C8
S11302C040D134DF27DF2FEF80E792E021508040D8
S11302D09040E1F700C000000F900F900F900F9036
S11302E0E8CF1F920F920FB60F9211242F933F93D2
S11302F04F938F939F93EF93FF931F9949C08091DE
S113030054029091550220E001972FEF8F3F9207FE
S1130310D9F721E040E012C080915202909153023B
S113032030E001973FEF8F3F9307D9F7822F8095F5
S11303301F9B02C0422B01C04823220F2111ECCF86
S1130340809150029091510201972FEF8F3F9207B5
S1130350D9F780910B0290E001968F739927209131
S11303600A0230E08217930769F0E0910B02F0E093
S1130370E45FFD4F408380910B028F5F8F73809306
S11303800B0206C081E090E090934D0280934C02F2
S1130390FF91EF919F918F914F913F912F910F90EA
S11303A00FBE0F901F9018950F931F938B019C0104
S11303B010920B0210920A0210924D0210924C02FB
S11303C084B1806484B984B18F7784B985B1806C39
S11303D085B980E090E06BC0FC01EE0FFF1FE80FD1
S11303E0F91FEE0FFF1FEE0FFF1FE85DFF4F459152
S11303F0559165917491401751076207730709F08D
S113040055C09C01220F331FF901E80FF91FEE0FAD
S1130410FF1FEE0FFF1FE45DFF4F45915491509372
S1130420550240935402F901E80FF91FEE0FFF1F24
S1130430EE0FFF1FE25DFF4F45915491509353021D
S113044040935202F901E80FF91FEE0FFF1FEE0F60
S1130450FF1FE05DFF4F459154915093510240932B
S11304605002F901E80FF91FEE0FFF1FEE0FFF1FF7
S1130470EE5CFF4F8591949190934F0280934E02CE
S1130480E8E6F0E0808181608083EBE6F0E0808143
S11304908068808380914E0290914F0220E0019702
S11304A02FEF8F3F9207D9F7789405C001968D30CE
S11304B0910508F491CF1F910F91089520914E0258
S11304C030914F022115310509F439C03FB7F89432
S11304D095B19F7B95B9E0914E02F0914F0234960D
S11304E020E031972FEFEF3FF207D9F791E015C0E5
S11304F0292F282321F025B1206425B903C025B173
S11305002F7B25B9E0914E02F0914F0220E0319704
S11305102FEFEF3FF207D9F7990F9111E9CF85B18A
S1130520806485B93FBF80914E0290914F0220E0D4
S113053001972FEF8F3F9207D9F721E030E0C901EF
S113054008950F931F93CF93DF93CDB7DEB7E29750
S11305500FB6F894DEBF0FBECDBF9E01275C3F4FA0
S1130560F901419151919F0162E370E0CE0101963E
S11305701AD000E010E003C0A1DF0F5F1F4FE1E0DD
S1130580F0E0EC0FFD1FE00FF11F80818111F4CF2B
S1130590E2960FB6F894DEBF0FBECDBFDF91CF91C8
S11305A01F910F910895AEE0B0E0E8EDF2E0C0C213
S11305B08C01FA0186E08C831A83098377FF02C0D9
S11305C060E070E8CB0101979E838D83A901BF0190
S11305D0CE01019611D04D815E8157FD0AC02F8155
S11305E03885421753070CF49A01F801E20FF31F00
S11305F010822E96E4E0B8C2ABE0B0E0E1E0F3E0B4
S113060089C26C017B018A01FC01178216828381F5
S113061081FFC0C1CE0101963C01F6019381F7012F
S113062093FD859193FF81917F01882309F4AEC1E5
S1130630853239F493FD859193FF81917F01853251
S113064021F4B60190E0C1D1E8CF912C212C312CBA
S1130650FFE1F315E0F08B3279F038F4803279F071
S11306608332A9F4232D206110C08D3259F08033D8
S113067071F4232D216009C0832D8260382EE32D6F
S1130680E46022C0F32DF86025C0322E27C037FC69
S11306902DC020ED280F2A3088F436FE06C0892D9F
S11306A06AE02FD2922E980E19C0822D6AE029D2C8
S11306B0222E280E832D8062382E10C08E3231F403
S11306C036FC64C1E32DE0643E2E08C08C3621F470
S11306D0F32DF0683F2E02C0883641F4F70193FDF4
S11306E0859193FF81917F018111B2CF982F9F7DD6
S11306F09554933028F40C5F1F4F2FE329830DC0CA
S1130700833631F0833771F0833509F055C020C04A
S1130710F801808189830E5F1F4F88248394912C74
S1130720530112C02801F2E04F0E511CF801A080C1
S1130730B18036FE03C0692D70E002C06FEF7FEF19
S1130740C50138D14C018201F32DFF773F2E15C02E
S1130750280122E0420E511CF801A080B18036FE2F
S113076003C0692D70E002C06FEF7FEFC50117D1A0
S11307704C01F32DF0683F2E820133FC19C0822D09
S113078090E088169906A0F4B60180E290E01DD1AD
S11307902A94F5CFF50137FC859137FE81915F01ED
S11307A0B60190E012D121102A9421E0821A910816
S11307B08114910479F7E1C0843611F0893639F552
S11307C0F80137FE07C060817181828193810C5FDB
S11307D01F4F08C060817181072E000C880B990B94
S11307E00E5F1F4FF32DFF763F2E97FF09C09095A4
S11307F08095709561957F4F8F4F9F4FF0683F2E86
S11308002AE030E0A3011DD1882E861844C0853724
S113081031F4232D2F7EB22E2AE030E025C0932D13
S1130820997FB92E8F36C1F018F4883579F0AEC0AF
S1130830803719F0883721F0A9C0E92FE061BE2E76
S1130840B4FE0DC0FB2DF460BF2E09C034FE0AC0F7
S1130850292F2660B22E06C028E030E005C020E132
S113086030E002C020E132E0F801B7FE07C0608149
S11308707181828193810C5F1F4F06C060817181F9
S113088080E090E00E5F1F4FA301DBD0882E861816
S1130890FB2DFF773F2E36FE0DC0232D2E7FA22E7B
S11308A0891458F434FE0BC032FC09C0832D8E7EAB
S11308B0A82E05C0B82CA32C03C0B82C01C0B92C99
S11308C0A4FE0FC0FE01E80DF11D8081803321F4E8
S11308D09A2D997EA92E09C0A2FE06C0B394B394A2
S11308E004C08A2D867809F0B394A3FC10C0A0FE3E
S11308F006C0B21480F4280C922C9B180DC0B214BC
S113090058F4B60180E290E060D0B394F8CFB2140A
S113091018F42B1802C0982C212CA4FE0FC0B60189
S113092080E390E052D0A2FE16C0A1FC03C088E789
S113093090E002C088E590E0B6010CC08A2D86786C
S113094051F0A1FE02C08BE201C080E2A7FC8DE25F
S1130950B60190E03AD0891430F4B60180E390E017
S113096034D09A94F8CF8A94F301E80DF11D808174
S1130970B60190E02AD08110F6CF222009F44DCEA2
S1130980B60180E290E021D02A94F7CFF601868167
S1130990978102C08FEF9FEF2B96E2E1D7C0FC0155
S11309A00590615070400110D8F7809590958E0F96
S11309B09F1F0895FC016150704001900110D8F709
S11309C0809590958E0F9F1F08950F931F93CF933B
S11309D0DF93FB01238121FD03C08FEF9FEF2CC028
S11309E022FF16C04681578124813581421753075F
S11309F044F4A081B1819D012F5F3F4F3183208357
S1130A008C93268137812F5F3F4F3783268314C011
S1130A108B01EC01FB010084F185E02D0995892B04
S1130A20E1F6D80116968D919C9117970196179629
S1130A309C938E931697CE01DF91CF911F910F91C6
S1130A400895FA01AA27283061F1203191F1E89440
S1130A506F936E7F6E5F7F4F8F4F9F4FAF4FB1E0AD
S1130A6040D0B4E03ED0670F781F891F9A1FA11DA4
S1130A70680F791F8A1F911DA11D6A0F711D811DA9
S1130A80911DA11D22D009F468943F91062E000CFB
S1130A903019000C000C3019305D3193CEF6CF01C3
S1130AA00895462F4770405D4193B3E00FD0C9F7D6
S1130AB0F6CF462F4F70405D4A3318F0495D31FD43
S1130AC04052419302D0A9F7EACFB4E0A695979596
S1130AD0879577956795BA95C9F70097610571056C
S1130AE008959B01AC010A2E0694579547953795B6
S1130AF02795BA95C9F7620F731F841F951FA01D10
S1130B000895002480FD060E660F11F08695D1F736
S1130B10802D08952F923F924F925F926F927F9211
S1130B208F929F92AF92BF92CF92DF92EF92FF92F9
S1130B300F931F93CF93DF93CDB7DEB7CA1BDB0BA5
S1130B400FB6F894DEBF0FBECDBF09942A8839884A
S1130B5048885F846E847D848C849B84AA84B98451
S1130B60C884DF80EE80FD800C811B81AA81B9815D
S1130B70CE0FD11D0FB6F894DEBF0FBECDBFED0171
S1090B800895F894FFCF74
S1130B86FF38283718FF27340839FFFF17FF240DCD
S1130B9678FF2936FFFFFF3507FFFFFF14137D1289
S1130BA66869FFFF196A26FFFF3AFFFFFFFF250E5C
S1130BB67776FFFFFF6BFFFF04FF03FF6D6C0201F7
S1130BC658FF59FFFFFFFF33090A5AFF160BFF0CA4
S1130BD6FFFF2A2BFFFFFFFFFFFFFFFF15FF7E7FAF
S1130BE667FF66FFFFFFFFFFFFFF5BFFFFFFFFFFE0
S1130BF67475FFFF73FFFFFF5D5E5CFF725F71003C
S1130C064847FF4449FFFF1DFF46FF45FFFF2322D8
S1130C1679FF7AFF4AFFFF1E06FF7BFFFFFF7C1169
S1130C26FFFFFF431AFF1B1CFF3BFFFFFFFFFF0FE6
S1130C36FFFFFFFFFFFFFFFF05FFFFFF6EFF6F10C4
S1130C465754FF2D5655FF32FFFFFF2EFFFFFF219E
S1130C56FF53FF2C4BFFFF1FFFFFFFFFFFFFFF208C
S1130C66643D6542FF3EFF31633CFF2FFFFFFF30CB
S1130C764D524E414C3FFF4062514F50616070FFF0
S10D0C867261773A2025640D0A001C
S9030000FC
