S01600004D6F746F726973656420706F74742E7372656371
S113000013C022C021C049C21FC01EC01DC01CC0D5
S11300101BC01AC019C018C076C016C015C014C0C1
S113002013C012C011C010C011241FBECFEFD2E004
S1130030DEBFCDBF21E0A0E0B1E001C01D92A63833
S1130040B207E1F7BBD0ABC3DBCFEAE7F0E08081D6
S11300508064808380917A0084FFFCCFEAE7F0E03B
S11300608081806180838081808320917800809169
S1130070790090E0982F8827822B0895CF93DF93FF
S1130080EC01ECE7F0E0808184648083EAE7F0E04F
S11300908081876880838AB181608AB984B18260F3
S11300A084B985B1826085B984B1816084B9CDDFBA
S11300B09B838A83DF91CF91089508952CE025BD19
S11300C02EE127BD22E020936E0016BC21E0FC0146
S11300D024830895EEE6F0E08081826080830895B1
S11300E0EEE6F0E080818D7F8083089521E0FC01BD
S11300F024830895FC0114820895FC018081918178
S1130100A281B381089578941F920F920FB60F9233
S113011011242F933F934F935F936F937F938F9308
S11301209F93AF93BF93EF93FF93DADF80910F0117
S1130130813099F480910E01882379F086DFE0E024
S1130140F1E0958384832681378182179307A1F098
S113015021E02087978386830FC080910F018A3026
S113016058F080910E01882339F06091020180E0FB
S113017091E0A3DF10920F01ADDFEAE0F1E08581A9
S11301808F5F858380819181A281B3810196A11DB6
S1130190B11D80839183A283B383FF91EF91BF91BB
S11301A0AF919F918F917F916F915F914F913F910B
S11301B02F910F900FBE0F901F90189514BE0FB67D
S11301C0F894A895809160008861809360001092F3
S11301D060000FBE80E091E051DF8AE091E06EDFC5
S11301E015D185E191E02BD178942FEF80E792E04F
S11301F0215080409040E1F700C000002AE031E047
S113020045E151E060E071E083E191E010D080913C
S11302100801882399F3C0E0D1E02C810AE041E091
S11302206AE071E083E191E096D11886E7CFCF923E
S1130230DF92EF92FF920F931F93CF93DF93FA0114
S1130240E259FF4F8081882309F4C3C08901EA0180
S11302507B01CA0157D18F3C910509F0BDC0C8018B
S11302604CDF6C0181E08093140109C0C80145DFB3
S1130270960128573C4E2817390708F4B0C0CE0120
S113028064D1892B99F3CE013DD18431910509F4D0
S113029062C07CF481309105F9F024F4892B09F4CF
S11302A0A1C092C08230910589F1039709F443C03B
S11302B08BC08D3F910509F460C02CF48C3F9105EF
S11302C009F450C081C08E3F910509F463C08F3F8B
S11302D0910509F46EC078C0F70122813381369507
S11302E02795369527950AE041E06AE071E083E1BD
S11302F091E031D180E090E080C0C801FEDE96013B
S113030028573C4E2817390708F46FC0CE011DD179
S1130310892B99F3CE01F6D0F7019383828380E091
S113032090E06BC0C801E9DE960128573C4E2817BF
S1130330390708F45DC0CE0108D1892B99F380E018
S113034090E05BC0C801D9DE960128573C4E2817BF
S1130350390708F450C0CE01F8D0892B99F380E016
S113036090E04BC098E088E10FB6F894A89580938C
S113037060000FBE90936000FFCFCE01E6D004E68C
S1130380282F4DEF6AE071E083E191E0E4D080E052
S113039090E033C00F2EF4E6EF2EF02D0EE69E0112
S11303A04EEF6AE071E083E191E052D180E090E0A9
S11303B024C004E622E04FEF6AE071E083E191E0BB
S11303C0CAD080E090E019C0CE0139D080E090E03E
S11303D014C080E090E011C080E090E00EC08FEF88
S11303E09FEF0BC080E090E008C08FEF9FEF05C047
S11303F08FEF9FEF02C08FEF9FEFDF91CF911F919F
S11304000F91FF90EF90DF90CF90089584B18F7794
S113041084B985B18F7785B984B1806184B984B199
S1130420806484B9E8E6F0E0808181608083EBE653
S1130430F0E080818460808380E48CBD0895FC01B9
S1130440E159FF4F10823196108232971082FC01DD
S1130450108211820895FC01E259FF4F2081293650
S1130460B0F432962081DC01A20FB11D6C9320817F
S11304702F5F2083DC01A259BF4F2C912F5F2C9357
S113048020812D3639F4108280E090E008958FEFBA
S11304909FEF089580E090E008951F920F920FB6A9
S11304A00F9211242F933F934F935F936F937F93F6
S11304B08F939F93AF93BF93EF93FF931A9B11C0B6
S11304C08091130181110DC06EB585E191E0C3DF08
S11304D0019631F485B18F7785B984B1806884B988
S11304E01EBCFF91EF91BF91AF919F918F917F912E
S11304F06F915F914F913F912F910F900FBE0F908D
S11305001F901895FC01E259FF4F20812223B9F076
S113051031962081DC01A20FB11D2C9130E0408185
S11305204F5F4083DC01A259BF4F4C9141504C9323
S113053040814D3639F41082822F932F08958FEF26
S11305409FEF0895822F932F089582599F4FFC01A6
S1130550808190E008958F929F92AF92BF92DF9234
S1130560EF92FF920F931F93CF93DF937C01EB01E4
S1130570D42E122FCB01C1DD4C01A12CB12C1A9B1E
S1130580FECF8AE091E0B6DD81E0F70180838DB58E
S11305908FED8EBD85B18F7785B984B1806884B9BC
S11305A00FC0CE01AADDA0E0B0E0B501A401400F68
S11305B0511D611D711D481759076A077B0728F0F3
S11305C00DB407FEEECF1A9BECCFDEBC0FC0CE01FC
S11305D094DDA0E0B0E0B501A401400F511D611D00
S11305E0711D481759076A077B0728F00DB407FEE9
S11305F0EECF1A9BECCF1EBD0FC0CE017EDDA0E076
S1130600B0E0B501A401400F511D611D711D4817D3
S113061059076A077B0728F00DB407FEEECF1A9B33
S1130620ECCF85B18F7785B984B18F7784B98AE0AF
S113063091E05CDDF7011082DF91CF911F910F9162
S1130640FF90EF90DF90BF90AF909F908F900895B0
S11306504F925F926F927F928F929F92AF92BF92CE
S1130660CF92DF92EF920F93CF93DF934C01EB0184
S1130670D42E5901CB0141DD2C01612C712C1A9B24
S1130680FECF8AE091E036DD81E0F40180838DB510
S11306908FED8EBD85B18F7785B984B1806884B9BB
S11306A00FC0CE012ADDA0E0B0E0B301A2014E0DDF
S11306B0511D611D711D481759076A077B0728F0F2
S11306C00DB407FEEECF1A9BECCFDEBC0FC0CE01FB
S11306D014DDA0E0B0E0B301A2014E0D511D611D77
S11306E0711D481759076A077B0728F00DB407FEE8
S11306F0EECF1A9BECCF0EBDC12CD12C1CC0CE0169
S1130700FCDCA0E0B0E0B301A2014E0D511D611D5F
S1130710711D481759076A077B0728F00DB407FEB7
S1130720EECF1A9BECCFF501EC0DFD1D80818EBD43
S1130730FFEFCF1ADF0A802F90E0C816D90674F3B2
S11307400FC0CE01DADCA0E0B0E0B301A2014E0D8F
S1130750511D611D711D481759076A077B0728F051
S11307600DB407FEEECF1A9BECCF85B18F7785B918
S113077084B18F7784B98AE091E0B8DCF401108207
S1130780DF91CF910F91EF90DF90CF90BF90AF901A
S11307909F908F907F906F905F904F900895F89402
S10507A0FFCF85
S9030000FC
