S01600004D6F746F726973656420706F74742E7372656371
S113000013C022C021C02AC31FC01EC01DC01CC0F3
S11300101BC01AC019C018C02CC116C015C014C00A
S113002013C012C011C010C011241FBECFEFD2E004
S1130030DEBFCDBF21E0A0E0B1E001C01D92AB3F27
S1130040B207E1F792D112C5DBCFFC01ACE7B0E017
S11300509C9194649C93AAE7B0E09C9197689C93CC
S11300609AB191609AB994B1926094B994B1916043
S113007094B981E08087118210820895EAE7F0E064
S113008080818064808380917A0084FFFCCFEAE7DA
S1130090F0E080818061808380818083209178007A
S11300A08091790090E0982F8827822B08958823E7
S11300B019F0813029F0089585B1816085B90895DA
S11300C085B18E7F85B90895811104C08BB18E7F6F
S11300D08BB908958BB181608BB90895EF92FF922B
S11300E00F931F93CF93DF93EC017B01042F88853B
S11300F0811102C0E9DF38C081E0E6DF10E08A81C7
S11301009B810817190710F480E0D1DF8A819B8155
S11301108017910710F481E0CADF8A819B819801DE
S1130120281B390BC90181373EEF930754F08039FE
S113013091403CF48BE490E0909389008093880094
S113014006C086E990E090938900809388008A81B4
S11301509B810817190741F4F7018281813009F462
S1130160128280E0B1DF1886DF91CF911F910F9149
S1130170FF90EF900895CF92DF92EF92FF920F934A
S11301801F93DB01CD90DD90ED90FC901397440F0D
S1130190551FFC01E40FF51F40815181052E000C11
S11301A0660B770BC41AD50AE60AF70AA801012ED2
S11301B0000C660B770BC40ED51EE61EF71ECD92FF
S11301C0DD92ED92FC921397118300836D917D91E2
S11301D08D919C91032E000C440B550B09D4C9013D
S11301E01F910F91FF90EF90DF90CF9008952CE036
S11301F025BD2EE127BD22E020936E0016BC21E030
S1130200FC0124830895CF93DF93EC0182E880936B
S1130210800089E18093810086E990E090938700D3
S1130220809386008BE490E090938900809388000B
S113023081E04ADF81E088838A83DF91CF9108954A
S1130240EEE6F0E08081826080830895EEE6F0E0DF
S113025080818D7F8083089521E0FC0124830895AB
S1130260FC0114820895FC0180819181A281B381F3
S1130270089578941F920F920FB60F9211240F9342
S11302801F932F933F934F935F936F937F938F931A
S11302909F93AF93BF93EF93FF93D8DF8091770140
S11302A0813061F580917601882341F1E7DE409148
S11302B0040150E08C0122E330E060E071E085E06D
S11302C091E059DF9C0190936C0180936B019091B4
S11302D004019F5F90930401923310F01092040183
S11302E080916D0190916E0128173907D1F0E9E6EC
S11302F0F1E081E086833583248313C08091770104
S11303008A3078F080917601882359F04091690110
S1130310440F440F68E771E089E691E0DFDE109254
S113032077018EDFE2E7F1E085818F5F858380814D
S11303309181A281B3810196A11DB11D8083918316
S1130340A283B383FF91EF91BF91AF919F918F915E
S11303507F916F915F914F913F912F911F910F91D9
S11303600F900FBE0F901F90189514BE0FB6F894FF
S1130370A89580916000886180936000109260006D
S11303800FBE89E691E061DE82E791E030DF1CD1A7
S113039080E891E035D188E791E035DF78942FEF5C
S11303A080E792E0215080409040E1F700C00000D7
S11303B022E731E040E851E069E671E08BE791E043
S11303C015D080916F01882399F380917A0181116E
S11303D0EFCFC9E6D1E02A813B810AE041E062E740
S11303E071E08BE791E0B1D11E82E2CFCF92DF9230
S11303F0EF92FF920F931F93CF93DF93FA01E85884
S1130400FF4F8081882309F4C2C08901EA017B017E
S1130410CA0172D18F3C910509F0BCC0C80123DF29
S11304206C0181E080937F0109C0C8011CDF960143
S113043028573C4E2817390708F4AFC0CE017FD1A6
S1130440892B99F3CE0158D18431910509F460C008
S11304507CF481309105F9F024F4892B09F4A0C0CF
S113046091C08230910569F1039709F441C08AC0B3
S11304708D3F910509F45EC02CF48C3F910509F47D
S11304804EC080C08E3F910509F461C08F3F910535
S113049009F46CC077C0F701208131810AE041E0A2
S11304A062E771E08BE791E050D180E090E083C097
S11304B0C801D9DE960128573C4E2817390708F49D
S11304C072C0CE013CD1892B99F3CE0115D1F7012D
S11304D09183808381E0808780E090E06CC0C801D4
S11304E0C2DE960128573C4E2817390708F45EC02F
S11304F0CE0125D1892B99F380E090E05CC0C8013E
S1130500B2DE960128573C4E2817390708F451C02B
S1130510CE0115D1892B99F380E090E04CC098E08E
S113052088E10FB6F894A895809360000FBE90936D
S11305306000FFCFCE0103D104E69C014DEF62E7DA
S113054071E08BE791E001D180E090E034C00F2EA0
S1130550F4E6EF2EF02D08E79E014EEF62E771E01E
S11305608BE791E09ED180E090E025C004E622E094
S113057030E04FEF62E771E08BE791E0E6D080E096
S113058090E019C0CE013CD080E090E014C080E03F
S113059090E011C080E090E00EC08FEF9FEF0BC0A1
S11305A080E090E008C08FEF9FEF05C08FEF9FEFD2
S11305B002C08FEF9FEFDF91CF911F910F91FF90BA
S11305C0EF90DF90CF90089584B18F7784B985B18F
S11305D08F7785B984B1806184B984B1806484B92A
S11305E084B1806484B9E8E6F0E08081816080832E
S11305F0EBE6F0E080818460808380E48CBD089524
S1130600FC01E758FF4F1082319610823297108216
S1130610FC01108211820895FC01E858FF4F2081EB
S11306202737B1F032962081DC01A20FB11D6C9303
S113063020812F5F2083DC01A858BF4F2C912F5FAE
S11306402C932081273739F4108280E090E00895BC
S11306508FEF9FEF089580E090E008951F920F922E
S11306600FB60F9211242F933F934F935F936F9381
S11306707F938F939F93AF93BF93EF93FF931A9BB3
S11306802AC081E080937E018EB5882361F0809139
S11306907C01811108C080917B01882321F081E0D5
S11306A080937D0118C010927D018EB5803821F4AD
S11306B081E080937C010FC08EB5813819F41092CB
S11306C07C0109C080917B01811105C06EB580E871
S11306D091E0A2DF1EBCFF91EF91BF91AF919F917A
S11306E08F917F916F915F914F913F912F910F90D7
S11306F00FBE0F901F901895FC01E858FF4F208102
S11307002223B9F031962081DC01A20FB11D2C9176
S113071030E040814F5F4083DC01A858BF4F4C91CB
S113072041504C934081473739F41082822F932FE4
S113073008958FEF9FEF0895822F932F089588587F
S11307409F4FFC01808190E008958F929F92AF9219
S1130750BF92CF92DF92EF92FF920F931F93CF93AA
S1130760DF93EC017B01C42ED22E132FCB017BDD52
S11307704C01A12CB12C1A9BFECF89818111FBCF96
S113078081E0888382E791E06BDD1B8285B1806420
S113079085B98FED8EBD95B180E4892785B984B183
S11307A0806884B985B18F7785B90FC0C7015BDDD7
S11307B0A0E0B0E0B501A401400F511D611D711D01
S11307C0481759076A077B0718F08B81882371F350
S11307D01B828A818111DDCFCEBC95B180E489274B
S11307E085B90FC0C7013FDDA0E0B0E0B501A401A9
S11307F0400F511D611D711D481759076A077B077A
S113080018F08B81882371F31B82DEBC95B180E4E0
S1130810892785B90FC0C70126DDA0E0B0E0B50186
S1130820A401400F511D611D711D481759076A0726
S11308307B0718F08B81882371F31B821EBD95B151
S113084080E4892785B90FC0C7010DDDA0E0B0E0C1
S1130850B501A401400F511D611D711D48175907B1
S11308606A077B0718F08B81882371F31B8285B19B
S11308708F7785B984B18F7784B982E791E0ECDC16
S113088085B18F7B85B91882DF91CF911F910F912C
S1130890FF90EF90DF90CF90BF90AF909F908F909C
S11308A008954F925F926F927F928F929F92AF9230
S11308B0BF92CF92DF92EF920F93CF93DF934C01CD
S11308C0EB01D42E5901CB01CEDC2C01612C712C0F
S11308D01A9BFECF82E791E0C3DC81E0F4018083C0
S11308E08DB58FED8EBD85B18F7785B984B1806864
S11308F084B90FC0CE01B7DCA0E0B0E0B301A2011F
S11309004E0D511D611D711D481759076A077B075C
S113091028F00DB407FEEECF1A9BECCFDEBC0FC05F
S1130920CE01A1DCA0E0B0E0B301A2014E0D511D47
S1130930611D711D481759076A077B0728F00DB41C
S113094007FEEECF1A9BECCF0EBDC12CD12C1CC0E0
S1130950CE0189DCA0E0B0E0B301A2014E0D511D2F
S1130960611D711D481759076A077B0728F00DB4EC
S113097007FEEECF1A9BECCFF501EC0DFD1D808137
S11309808EBDFFEFCF1ADF0A802F90E0C816D9067C
S113099074F30FC0CE0167DCA0E0B0E0B301A201A4
S11309A04E0D511D611D711D481759076A077B07BC
S11309B028F00DB407FEEECF1A9BECCF85B18F77EC
S11309C085B984B18F7784B982E791E045DCF4017D
S11309D01082DF91CF910F91EF90DF90CF90BF9075
S11309E0AF909F908F907F906F905F904F900895FD
S11309F0052E97FB16F400940FD057FD05D014D0A4
S1130A0007FC02D046F408C05095409530952195D6
S1130A103F4F4F4F5F4F0895909580957095619526
S1130A207F4F8F4F9F4F0895A1E21A2EAA1BBB1B25
S1130A30FD010DC0AA1FBB1FEE1FFF1FA217B307A6
S1130A40E407F50720F0A21BB30BE40BF50B661FBC
S1130A50771F881F991F1A9469F760957095809580
S1130A6090959B01AC01BD01CF010895F894FFCF8F
S9030000FC
