:1000000013C022C021C0EFC11FC01EC01DC01CC034
:100010001BC01AC019C018C094C016C015C014C0A7
:1000200013C012C011C010C011241FBECFEFD2E008
:10003000DEBFCDBF21E0A0E0B1E001C01D92A1373D
:10004000B207E1F7D1D00DC3DBCFECE7F0E0808160
:1000500084648083EAE7F0E08081876880838AB1E6
:1000600081608AB984B1826084B985B1826085B9C2
:1000700084B1816084B90895EAE7F0E0808180640A
:10008000808380917A0084FFFCCFEAE7F0E08081F2
:1000900080618083808180832091780080917900C5
:1000A00090E0982F8827822B96958795969587952F
:1000B000089590910201891718F495B1916095B94E
:1000C00090910201981718F495B19E7F95B990E030
:1000D000AC01455051092091020130E0421753070D
:1000E00044F405962817390724F48BB18E7F8BB919
:1000F00008958BB181608BB908958CE085BD8EE148
:1001000087BD82E080936E0016BC81E0809304017D
:100110000895EEE6F0E08081826080830895EEE647
:10012000F0E080818D7F8083089581E080930401D9
:10013000089510920401089580910A0190910B0195
:10014000089578941F920F920FB60F9211242F9357
:100150003F934F935F936F937F938F939F93AF934F
:10016000BF93EF93FF93DBDF80910501813089F42A
:1001700090910401992369F07FDF809302019091AF
:100180000101891789F091E09093030180930101A7
:100190000BC08A3048F080910401882329F08091B7
:1001A000000187DF10920501B4DF809105018F5FA8
:1001B0008093050180910A0190910B010196909323
:1001C0000B0180930A01FF91EF91BF91AF919F9135
:1001D0008F917F916F915F914F913F912F910F90F0
:1001E0000FBE0F901F90189514BE0FB6F894A895E7
:1001F00080916000886180936000109260000FBE63
:1002000024DF7BDFA9D0C1D078942FEF80E792E084
:10021000215080409040E1F700C000000CD0809158
:1002200003018823D9F34AE06091020181E02ED1D5
:1002300010920301F3CFCF93DF93809109018823BC
:1002400009F47CC079DFEC0181E080930C01F6D0E9
:1002500087319105A4F4853191050CF06BC0823093
:10026000910569F134F4009709F464C00197C9F06D
:1002700060C08330910589F14497D1F15AC08D3F18
:10028000910509F444C024F48C3F9105A9F151C0B3
:100290008E3F910509F441C08F3F910509F444C098
:1002A00048C04AE06091000181E0F0D043C044DFE3
:1002B0009E0128573C4E2817390708F442C0E2D067
:1002C000892BA9F3BBD08093000134C035DF9E0198
:1002D00028573C4E28173907B8F1D4D0892BB1F3F1
:1002E00029C02ADF9E0128573C4E2817390778F18C
:1002F000C9D0892BB1F31EC098E088E10FB6F894FD
:10030000A895809360000FBE90936000FFCFBAD095
:1003100044E6682F8DEFBAD00DC024E644E66DE0C8
:1003200071E08EEF16D106C04AE062E08FEFAED0EA
:1003300001C02BD02AD080E090E00BC080E090E09C
:1003400008C08FEF9FEF05C08FEF9FEF02C08FEFC8
:100350009FEFDF91CF91089584B18F7784B985B1F4
:100360008F7785B984B1806184B984B1806484B9A0
:10037000E8E6F0E0808181608083EBE6F0E0808158
:100380008460808380E48CBD0895109208011092EF
:10039000070110920901EDE0F1E010821182089549
:1003A000909109019336C9F0E0910701F0E0E35F15
:1003B000FE4F8083809107018F5F809307018091BA
:1003C00009018F5F8093090180910701833641F411
:1003D0001092070180E090E008958FEF9FEF08955D
:1003E00080E090E008951F920F920FB60F921124B3
:1003F0002F933F934F935F936F937F938F939F932D
:10040000AF93BF93EF93FF931A9B07C080910601B0
:10041000811103C08EB5C4DF1EBCFF91EF91BF9167
:10042000AF919F918F917F916F915F914F913F918C
:100430002F910F900FBE0F901F901895809109017A
:100440008823D1F0E0910801F0E0E35FFE4F2081C6
:1004500030E0809108018F5F80930801809109014D
:1004600081508093090180910801833641F41092F4
:100470000801822F932F08958FEF9FEF0895822F09
:10048000932F08958091090190E00895CF92DF9213
:10049000EF92FF921F93CF93DF93182FD62FC42F85
:1004A0001F9BFECF81E080930601E8E6F0E08081AB
:1004B0008E7F8083109204013FDE6C01E12CF12CD1
:1004C0008DB51EBD85B18F7785B984B1806884B93B
:1004D0000EC032DEA0E0B0E0B701A6014C0F511D06
:1004E000611D711D481759076A077B0728F00DB475
:1004F00007FEEFCF1A9BEDCFDEBD0EC01DDEA0E0E4
:10050000B0E0B701A6014C0F511D611D711D4817C8
:1005100059076A077B0728F00DB407FEEFCF1A9B37
:10052000EDCF85B18F7785B984B18F7784B9E8E64F
:10053000F0E080818160808381E0809304011092EB
:100540000601DF91CF911F91FF90EF90DF90CF9048
:100550000895AF92BF92CF92DF92EF92FF920F93E6
:100560001F93CF93DF93C82F8B01A42EB22E1F9B16
:10057000FECF81E080930601DCDDE8E6F0E08081DB
:100580008E7F8083D9DD6C01E12CF12C8DB5CEBD41
:1005900085B18F7785B984B1806884B90EC0CCDD10
:1005A000A0E0B0E0B701A6014B0D511D611D711D0A
:1005B000481759076A077B0728F00DB407FEEFCFED
:1005C0001A9BEDCFAEBCC0E0D0E019C0B5DDA0E015
:1005D000B0E0B701A6014B0D511D611D711D4817FB
:1005E00059076A077B0728F00DB407FEEFCF1A9B67
:1005F000EDCFF801EC0FFD1F80818EBD21968A2D75
:1006000090E0C817D90784F30EC096DDA0E0B0E0F3
:10061000B701A6014B0D511D611D711D48175907EA
:100620006A077B0728F00DB407FEEFCF1A9BEDCFCA
:1006300085B18F7785B984B18F7784B9E8E6F0E02A
:1006400080818160808371DD10920601DF91CF91FE
:100650001F910F91FF90EF90DF90CF90BF90AF90E0
:060660000895F894FFCF9D
:00000001FF
