:1000000013C022C021C069C21FC01EC01DC01CC0B9
:100010001BC01AC019C018C09BC016C015C014C0A0
:1000200013C012C011C010C011241FBECFEFD2E008
:10003000DEBFCDBF21E0A0E0B1E001C01D92A53739
:10004000B207E1F7DCD0C3C3DBCFEAE7F0E08081A1
:100050008064808380917A0084FFFCCFEAE7F0E03F
:10006000808180618083808180832091780080916D
:10007000790090E0982F8827822B96958795969502
:1000800087950895CF93DF93EC01ECE7F0E0808152
:1000900084648083EAE7F0E08081876880838AB1A6
:1000A00081608AB984B1826084B985B1826085B982
:1000B00084B1816084B9C9DF8A83DF91CF910895CB
:1000C000FC018381681718F485B1816085B983814B
:1000D000861718F485B18E7F85B970E09B01255095
:1000E0003109838190E0281739074CF46B5F7F4F0B
:1000F0008617970724F48BB18E7F8BB908958BB147
:1001000081608BB908952CE025BD2EE127BD22E04A
:1001100020936E0016BC21E0FC0124830895EEE6D6
:10012000F0E08081826080830895EEE6F0E08081D7
:100130008D7F8083089521E0FC0124830895FC01D4
:1001400014820895FC0180819181A281B381089578
:1001500078941F920F920FB60F9211242F933F9312
:100160004F935F936F937F938F939F93AF93BF93BF
:10017000EF93FF93DADF80910B01813079F4809166
:100180000A01882359F061DFE0E0F1E08383948184
:10019000891799F091E0958384830FC080910B01BA
:1001A0008A3058F080910A01882339F06091020169
:1001B00080E091E085DF10920B01B1DFE6E0F1E035
:1001C00085818F5F858380819181A281B381019632
:1001D000A11DB11D80839183A283B383FF91EF9111
:1001E000BF91AF919F918F917F916F915F914F914F
:1001F0003F912F910F900FBE0F901F90189514BE36
:100200000FB6F894A8958091600088618093600093
:10021000109260000FBE80E091E034DF86E091E054
:1002200072DF14D18EE091E02AD178942FEF80E72D
:1002300092E0215080409040E1F700C0000026E0AD
:1002400031E04EE051E060E071E08CE091E010D0F0
:1002500080910501882399F3C0E0D1E00AE02B8169
:1002600041E066E071E08CE091E08DD11D82E7CF46
:10027000CF92DF92EF92FF920F931F93CF93DF9372
:10028000FA01EC59FF4F8081882309F4C2C089012B
:10029000EA017B01CA014ED18F3C910509F0BCC037
:1002A000C80150DF6C0181E080930D0109C0C801D5
:1002B00049DF960128573C4E2817390708F4AFC08C
:1002C000CE015BD1892B99F3CE0134D187319105D1
:1002D000B4F4853191050CF0A5C082309105B9F1D7
:1002E00034F4009709F49EC00197E1F08DC083308B
:1002F000910509F440C0449709F44DC085C08D3F75
:10030000910509F45AC02CF48C3F910509F44AC0B8
:100310007BC08E3F910509F45DC08F3F910509F4C4
:1003200068C072C00AE0F701228141E066E071E036
:100330008CE091E028D180E090E07FC0C80102DF2E
:10034000960128573C4E2817390708F46EC0CE0195
:1003500014D1892B99F3CE01EDD0F701828380E08F
:1003600090E06BC0C801EEDE960128573C4E28177E
:10037000390708F45DC0CE0100D1892B99F380E0E4
:1003800090E05BC0C801DEDE960128573C4E28177E
:10039000390708F450C0CE01F0D0892B99F380E0E2
:1003A00090E04BC098E088E10FB6F894A895809350
:1003B00060000FBE90936000FFCFCE01DED004E658
:1003C000282F4DEF66E071E08CE091E0DCD080E01A
:1003D00090E033C00F2EF4E6EF2EF02D04E69E01E0
:1003E0004EEF66E071E08CE091E04AD180E090E071
:1003F00024C004E622E04FEF66E071E08CE091E07B
:10040000C2D080E090E019C0CE0139D080E090E009
:1004100014C080E090E011C080E090E00EC08FEF4B
:100420009FEF0BC080E090E008C08FEF9FEF05C00A
:100430008FEF9FEF02C08FEF9FEFDF91CF911F9162
:100440000F91FF90EF90DF90CF90089584B18F7758
:1004500084B985B18F7785B984B1806184B984B15D
:10046000806484B9E8E6F0E0808181608083EBE617
:10047000F0E080818460808380E48CBD0895FC017D
:10048000EB59FF4F10823196108232971082FC0197
:10049000108211820895FC01EC59FF4F2081233610
:1004A000B1F032962081DC01A20FB11D6C93208146
:1004B0002F5F2083DC01AC59BF4F2C912F5F2C9311
:1004C0002081233639F4108280E090E008958FEF88
:1004D0009FEF089580E090E008951F920F920FB66D
:1004E0000F9211242F933F934F935F936F937F93BA
:1004F0008F939F93AF93BF93EF93FF931A9B09C082
:1005000080910C01811105C06EB58EE091E0C3DFD2
:100510001EBCFF91EF91BF91AF919F918F917F9101
:100520006F915F914F913F912F910F900FBE0F9060
:100530001F901895FC01EC59FF4F20812223B9F040
:1005400031962081DC01A20FB11D2C9130E0408159
:100550004F5F4083DC01AC59BF4F4C9141504C93ED
:100560004081433639F41082822F932F08958FEF04
:100570009FEF0895822F932F08958C599F4FFC0170
:10058000808190E008958F929F92AF92BF92DF9208
:10059000EF92FF920F931F93CF93DF937C01EB01B8
:1005A000D42E122FCB01CEDD4C01A12CB12C1A9BE5
:1005B000FECF86E091E0C3DD81E0F70180838DB559
:1005C0008FED8EBD85B18F7785B984B1806884B990
:1005D0000FC0CE01B7DDA0E0B0E0B501A401400F2F
:1005E000511D611D711D481759076A077B0728F0C7
:1005F0000DB407FEEECF1A9BECCFDEBC0FC0CE01D0
:10060000A1DDA0E0B0E0B501A401400F511D611DC6
:10061000711D481759076A077B0728F00DB407FEBC
:10062000EECF1A9BECCF1EBD0FC0CE018BDDA0E03C
:10063000B0E0B501A401400F511D611D711D4817A7
:1006400059076A077B0728F00DB407FEEECF1A9B07
:10065000ECCF85B18F7785B984B18F7784B986E087
:1006600091E069DDF7011082DF91CF911F910F9129
:10067000FF90EF90DF90BF90AF909F908F90089584
:100680004F925F926F927F928F929F92AF92BF92A2
:10069000CF92DF92EF920F93CF93DF934C01EB0158
:1006A000D42E5901CB014EDD2C01612C712C1A9BEB
:1006B000FECF86E091E043DD81E0F40180838DB5DB
:1006C0008FED8EBD85B18F7785B984B1806884B98F
:1006D0000FC0CE0137DDA0E0B0E0B301A2014E0DA6
:1006E000511D611D711D481759076A077B0728F0C6
:1006F0000DB407FEEECF1A9BECCFDEBC0FC0CE01CF
:1007000021DDA0E0B0E0B301A2014E0D511D611D3D
:10071000711D481759076A077B0728F00DB407FEBB
:10072000EECF1A9BECCF0EBDC12CD12C1CC0CE013C
:1007300009DDA0E0B0E0B301A2014E0D511D611D25
:10074000711D481759076A077B0728F00DB407FE8B
:10075000EECF1A9BECCFF501EC0DFD1D80818EBD17
:10076000FFEFCF1ADF0A802F90E0C816D90674F386
:100770000FC0CE01E7DCA0E0B0E0B301A2014E0D56
:10078000511D611D711D481759076A077B0728F025
:100790000DB407FEEECF1A9BECCF85B18F7785B9EC
:1007A00084B18F7784B986E091E0C5DCF4011082D2
:1007B000DF91CF910F91EF90DF90CF90BF90AF90EE
:1007C0009F908F907F906F905F904F900895F894D6
:0207D000FFCF59
:00000001FF
