:1000000013C022C021C000C41FC01EC01DC01CC020
:100010001BC01AC019C018C02BC116C015C014C00F
:1000200013C012C011C010C011241FBECFEFD2E008
:10003000DEBFCDBF22E0A0E0B1E001C01D92A0383C
:10004000B207E1F7A0D1D6C5DBCFFC01ACE7B0E049
:100050009C9194649C93AAE7B0E09C9197689C93D0
:100060009AB191609AB994B1926094B994B1916047
:1000700094B981E08287118210820895EAE7F0E066
:1000800080818064808380917A0084FFFCCFEAE7DE
:10009000F0E080818061808380818083209178007E
:1000A0008091790090E0982F8827822B08958823EB
:1000B00019F0813029F0089585B1816085B90895DE
:1000C00085B18E7F85B90895811104C08BB18E7F73
:1000D0008BB908958BB181608BB90895EF92FF922F
:1000E0000F931F93CF93DF93EC017B018A018A85E5
:1000F000811102C0E9DF37C081E0E6DF8A819B81A0
:100100000817190710F480E0D2DF8A819B818017DD
:10011000910710F481E0CBDF8A819B819801281B35
:10012000390BC90189333FEF930754F0883C91059F
:100130003CF489E490E0909389008093880006C0A5
:1001400086E990E090938900809388008A819B8162
:100150000817190741F4F7018281813009F41282EE
:1001600080E0B2DF1A86DF91CF911F910F91FF904F
:10017000EF900895CF92DF92EF92FF920F931F932B
:10018000DB01CD90DD90ED90FC901397440F551F4F
:10019000FC01E40FF51F40815181052E000C660B18
:1001A000770BC41AD50AE60AF70AA801012E000C3B
:1001B000660B770BC40ED51EE61EF71ECD92DD92A0
:1001C000ED92FC921397118300836D917D918D9137
:1001D0009C91032E000C440B550BCED4C9011F91EA
:1001E0000F91FF90EF90DF90CF9008952CE025BD08
:1001F0002EE127BD22E020936E0016BC21E0FC0119
:1002000024830895CF93DF93EC0182E880938000EC
:1002100089E18093810086E990E090938700809344
:1002200086008BE490E0909389008093880081E0C1
:100230004BDF81E088838A83DF91CF910895EEE6DA
:10024000F0E08081826080830895EEE6F0E08081B6
:100250008D7F8083089521E0FC0124830895FC01B3
:1002600014820895FC0180819181A281B381089557
:1002700078941F920F920FB60F9211240F931F9331
:100280002F933F934F935F936F937F938F939F939E
:10029000AF93BF93CF93DF93EF93FF93D6DF80911C
:1002A0007B018130B9F580917A01882399F1E6DEEE
:1002B000CBE6D1E09B838A834091050150E08C011D
:1002C00022E330E061E071E086E091E053DFAC01D1
:1002D0009F838E83209105012F5F209305019091CC
:1002E00000019F5F90930001223310F010920501EE
:1002F000953010F01092000180916F019091700183
:1003000048175907D1F0EBE6F1E081E0808755838B
:10031000448313C080917B018A3078F080917A0108
:10032000882359F040916B0150916C016CE771E0AA
:100330008BE691E0D3DE10927B0181DFE6E7F1E00E
:1003400085818F5F858380819181A281B3810196B0
:10035000A11DB11D80839183A283B383FF91EF918F
:10036000DF91CF91BF91AF919F918F917F916F91CD
:100370005F914F913F912F911F910F910F900FBE61
:100380000F901F90189514BE0FB6F894A895809101
:100390006000886180936000109260000FBE8BE661
:1003A00091E053DE86E791E021DFE4D183E891E03C
:1003B000FDD18CE791E026DF78942FEF80E792E083
:1003C000215080409040E1F700C0000080917D0204
:1003D000882349F026E731E043E851E06BE671E01D
:1003E0008FE791E077D180917301882379F3809131
:1003F0007E018111EBCFCBE6D1E02E813F8104EF6E
:1004000011E041E066E771E08FE791E074D2188671
:10041000DDCF30E0322F22273295307F50E0542F4D
:100420004427242B352B70E062957295707F7627D8
:10043000607F7627622B732B9B01282BC9010895BF
:10044000EF92FF920F931F93CF93DF93EC017B0109
:100450008A010EC0C70106DF98012C503E4F2817B5
:10046000390730F410926A016FEF7FEFCB0124C09F
:10047000CE013BD2059774F3CE0114D2182FCE01D2
:1004800011D2082FCE010ED2F82ECE010BD2E82EBB
:10049000CE0108D2813A910539F010926A016EEFCF
:1004A0007FEF8FEF9FEF08C02E2D4F2D602F812FF4
:1004B000B0DFBC0180E090E0DF91CF911F910F9100
:1004C000FF90EF900895AF92BF92CF92DF92EF929C
:1004D000FF920F931F93CF93DF935B01EA017901A2
:1004E000C901C0DE6C01043609F457C028F401309C
:1004F000C9F00230B1F1E1C0063609F492C008F447
:1005000064C00F3709F4BBC0D8C0C701ABDE960189
:100510002C503E4F2817390728F410926A018FEFAC
:100520009FEFCDC0CE01E1D1892B79F3CE01BAD1B5
:10053000813A910529F010926A018EEF9FEFBFC0BA
:10054000F501208131810AE010E041E066E771E0C9
:100550008FE791E0D0D182E080936A0180E090E063
:10056000AEC0AC01B701CE016BDF6B017C01F501C0
:100570002081318102E310E042E066E771E08FE71D
:1005800091E0B9D1F501D182C08281E0828782E019
:1005900080936A0180E090E092C098E088E10FB615
:1005A000F894A895809360000FBE90936000FFCFF1
:1005B000C70158DE96012C503E4F2817390728F402
:1005C00010926A018FEF9FEF7AC0CE018ED1892BF6
:1005D00079F3CE0167D1813A910529F010926A0131
:1005E0008EEF9FEF6CC0CE0180D104E610E09C013D
:1005F0004DEF66E771E08FE791E07DD182E0809377
:100600006A0180E090E05BC0C7012CDE96012C50AF
:100610003E4F2817390728F410926A018FEF9FEF99
:100620004EC0CE0162D1892B79F3CE013BD1813A04
:10063000910529F010926A018EEF9FEF40C00F2EB6
:10064000F4E6EF2EF12CF02D0AEF9E014EEF66E757
:1006500071E08FE791E0E7D182E080936A0180E06A
:1006600090E02DC0C701FEDD96012C503E4F2817AB
:10067000390728F410926A018FEF9FEF20C0CE0156
:1006800034D1892B79F3CE010DD1813A910529F02E
:1006900010926A018EEF9FEF12C004E610E022E094
:1006A00030E04FEF66E771E08FE791E024D182E020
:1006B00080936A0180E090E002C080E090E0DF91EA
:1006C000CF911F910F91FF90EF90DF90CF90BF904F
:1006D000AF900895AF92BF92CF92DF92EF92FF92C8
:1006E0000F93CF93DF937C016B01EA015901809155
:1006F0006A01813079F028F0823041F1833041F194
:100700002DC0CA01CFD08038910541F581E080939A
:100710006A0124C0CA01C6D0882301F18038F1F0F3
:10072000813819F410926A0119C088231CF41092C0
:100730006A0114C0082F9501AE01B601C701C3DEDE
:10074000992364F483E080936A0108C010926A01DF
:1007500095B180E4892785B910926A0180E090E024
:10076000DF91CF910F91FF90EF90DF90CF90BF90EE
:10077000AF90089584B18F7784B985B18F7785B9AB
:1007800084B1806184B984B1806484B984B18064A7
:1007900084B9E8E6F0E0808181608083EBE6F0E0F8
:1007A00080818460808380E48CBD0895FC01E550E5
:1007B000FF4F10823196108232971082FC01108216
:1007C00011820895FC01E650FF4F2081293FB1F0CE
:1007D00032962081DC01A20FB11D6C9320812F5F26
:1007E0002083DC01A650BF4F2C912F5F2C932081DA
:1007F000293F39F4108280E090E008958FEF9FEF59
:10080000089580E090E008951F920F920FB60F9226
:1008100011242F933F934F935F936F937F938F9305
:100820009F93AF93BF93EF93FF931A9B2AC081E0EE
:10083000809382018EB5882361F0809180018111BF
:1008400008C080917F01882321F081E0809381019D
:1008500018C0EFE7F1E012828081811112C08EB5DD
:10086000803821F481E08093800106C08EB5813804
:1008700019F41092800105C06EB583E891E0A2DF03
:100880001EBCFF91EF91BF91AF919F918F917F918E
:100890006F915F914F913F912F910F900FBE0F90ED
:1008A0001F901895FC01E650FF4F20812223B9F0DC
:1008B00031962081DC01A20FB11D2C9130E04081E6
:1008C0004F5F4083DC01A650BF4F4C9141504C9389
:1008D0004081493F39F41082822F932F08958FEF82
:1008E0009FEF0895822F932F089586509F4FFC010C
:1008F000808190E008957F928F929F92AF92BF92F5
:10090000CF92DF92EF92FF920F931F93CF93DF93DB
:10091000EC015B01742E822E932ECB01A3DC6C01C3
:10092000E12CF12C1A9BFECF89818111FBCF81E054
:10093000888386E791E093DC1B828FED8EBD84B1C6
:10094000806884B985B18F7785B90FC0C5018ADC0D
:10095000A0E0B0E0B701A601400F511F611D711D5D
:10096000481759076A077B0718F08B81882371F3B2
:100970001B828A818111E1CF7EBC0FC0C50172DC70
:10098000A0E0B0E0B701A601400F511F611D711D2D
:10099000481759076A077B0718F08B81882371F382
:1009A0001B828EBC0FC0C5015DDCA0E0B0E0B701CA
:1009B000A601400F511F611D711D481759076A0795
:1009C0007B0718F08B81882371F31B829EBC0FC0BC
:1009D000C50148DCA0E0B0E0B701A601400F511FFF
:1009E000611D711D481759076A077B0718F08B8135
:1009F000882371F31B8285B18F7785B984B18F7796
:100A000084B986E791E027DC1882DF91CF911F91AE
:100A10000F91FF90EF90DF90CF90BF90AF909F909D
:100A20008F907F9008954F925F926F927F928F92F6
:100A30009F92AF92BF92CF92DF92EF92FF920F936D
:100A4000CF93DF934C01EB01D42E5901CB010ADC8B
:100A50002C01612C712C1A9BFECF86E791E0FFDB05
:100A600081E0F40180838DB58FED8EBD85B18F77E8
:100A700085B984B1806884B90FC0CE01F3DBA0E0F2
:100A8000B0E0B301A2014E0D5F1D611D711D48173D
:100A900059076A077B0728F00DB407FEEECF1A9BB3
:100AA000ECCFDEBC0FC0CE01DDDBA0E0B0E0B301D7
:100AB000A2014E0D5F1D611D711D481759076A0780
:100AC0007B0728F00DB407FEEECF1A9BECCF0EBDCE
:100AD000C12CD12C1CC0CE01C5DBA0E0B0E0B3011D
:100AE000A2014E0D5F1D611D711D481759076A0750
:100AF0007B0728F00DB407FEEECF1A9BECCFF50173
:100B0000EC0DFD1D80818EBDFFEFCF1ADF0A802F17
:100B100090E0C816D90674F30FC0CE01A3DBA0E0A5
:100B2000B0E0B301A2014E0D5F1D611D711D48179C
:100B300059076A077B0728F00DB407FEEECF1A9B12
:100B4000ECCF85B18F7785B984B18F7784B986E78B
:100B500091E081DBF4011082DF91CF910F91FF9042
:100B6000EF90DF90CF90BF90AF909F908F907F904D
:100B70006F905F904F900895052E97FB16F40094A8
:100B80000FD057FD05D014D007FC02D046F408C0A2
:100B900050954095309521953F4F4F4F5F4F0895A9
:100BA00090958095709561957F4F8F4F9F4F0895D9
:100BB000A1E21A2EAA1BBB1BFD010DC0AA1FBB1F61
:100BC000EE1FFF1FA217B307E407F50720F0A21BD3
:100BD000B30BE40BF50B661F771F881F991F1A9440
:100BE00069F760957095809590959B01AC01BD016A
:080BF000CF010895F894FFCF36
:00000001FF
