S01400004C65642072696E67204143452E7372656342
S113000093C0ADC0ACC0E7C2AAC0A9C0A8C0A7C075
S1130010A6C0A5C0A4C0A3C050C1A1C0A0C09FC019
S11300209EC09DC09CC09BC0FF38283718FF273452
S11300300839FFFF17FF240D78FF2936FFFFFF352E
S113004007FFFFFF14137D126869FFFF196A26FF7B
S1130050FF3AFFFFFFFF250E7776FFFFFF6BFFFFE1
S113006004FF03FF6D6C020158FF59FFFFFFFF33CC
S1130070090A5AFF160BFF0CFFFF2A2BFFFFFFFF95
S1130080FFFFFFFF15FF7E7F67FF66FFFFFFFFFF98
S1130090FFFF5BFFFFFFFFFF7475FFFF73FFFFFFB1
S11300A05D5E5CFF725F71004847FF4449FFFF1DBE
S11300B0FF46FF45FFFF232279FF7AFF4AFFFF1E19
S11300C006FF7BFFFFFF7C11FFFFFF431AFF1B1C92
S11300D0FF3BFFFFFFFFFF0FFFFFFFFFFFFFFFFFE0
S11300E005FFFFFF6EFF6F105754FF2D5655FF326B
S11300F0FFFFFF2EFFFFFF21FF53FF2C4BFFFF1FCE
S1130100FFFFFFFFFFFFFF20643D6542FF3EFF311D
S1130110633CFF2FFFFFFF304D524E414C3FFF40E9
S113012062514F50616070FF11241FBECFEFD2E0C7
S1130130DEBFCDBF11E0A0E0B1E0E2E3F6E002C033
S113014005900D92AE31B107D9F721E0AEE1B1E0EF
S113015001C01D92AB38B207E1F7EFD168C250CFAE
S1130160862311F080E0089581E00895CF93DF9312
S11301708BB1877F8BB900000000000086B160E876
S1130180EFDFC82FD0E0D695DC2FCC27D795C795C5
S113019086B161E0E5DF90E00024969587950794A9
S11301A0969587950794982F802DC82BD92B86B1C7
S11301B062E0D6DF90E0880F991F82959295907F38
S11301C09827807F9827C82BD92B86B164E0C8DF95
S11301D090E082959295907F9827807F9827C82BEE
S11301E0D92B89B160E4BCDF90E0880F991F880F98
S11301F0991F880F991FC82BD92B89B160E8B0DFEC
S113020090E0880F991F880F991FC82BD92B83B1B1
S113021061E0A6DF90E0880F991FC82BD92B83B12A
S113022062E09EDFFE01E82BE85DFF4F84919BB105
S113023098609BB9DF91CF91089584B18C7F84B984
S113024087B1887787B988E08AB98BB188608BB920
S11302508DE085BD8EE487BD82E080936E0016BC80
S113026085DF809320010895FB01DC016C916637E2
S113027048F020812A3030F430E0261B3109205820
S11302803F4F0FC06F3048F420812F3630F030E0FC
S1130290261B31092058310904C0208130E0261B77
S11302A03109DA016D917C911197260F371F2D9337
S11302B03C932081FC01208308951F920F920FB676
S11302C00F9211240F931F932F933F934F935F9398
S11302D06F937F938F939F93AF93BF93CF93DF934A
S11302E0EF93FF9380911E0190911F010097A1F459
S11302F03DDF8093210142E251E061E271E080E25E
S113030091E0B2DF80911E0190911F0101969093BC
S11303101F0180931E0132C0019781F58091220153
S11303209091230195958795959587958C010295D4
S11303301295107F1027007F1027081B190B1595A5
S11303400795159507951595079515950795159591
S11303500795C0E0D0E00BC00C171D0724F06CE03B
S11303608C2FACD003C060E18C2FA8D02196CE3165
S1130370D10594F310921F0110921E01FF91EF9189
S1130380DF91CF91BF91AF919F918F917F916F91A9
S11303905F914F913F912F911F910F910F900FBE3D
S11303A00F901F90189582E08093B800E9EBF0E07D
S11303B0808180830895ECEBF0E09081946A9083CF
S11303C09091BC009923E4F79091B900987F9830FC
S11303D029F09091B900987F9031C9F490E0880F8A
S11303E0991F862B8093BB0084E88093BC00809186
S11303F0BC008823E4F78091B900887F883149F0F4
S11304008091B900887F803431F480E0089581E0E0
S1130410089580E0089581E0089584E98093BC0004
S113042008958093BB0084E88093BC008091BC0055
S11304308823E4F78091B900887F883211F081E045
S1130440089580E00895CF93DF93C82FD62F60E0FE
S113045084E3B1DF81110BC08C2FE3DF811109C06C
S11304608D2FDFDFC82F811106C0D7DF05C0C1E0A3
S113047003C0C1E001C0C1E08C2FDF91CF9108958A
S1130480CF93DF936EEA8FECDEDF61E080EADBDF9F
S11304906EE181EAD8DFC0E9D0E004C06CE38C2FC0
S11304A0D2DF2196CF39D105CCF387B1886087B9E3
S11304B088B1886088B9DF91CF910895CF93DF9395
S11304C0C62FE82FF0E0E050FF4FD08160E084E3D6
S11304D072DF81112BC08D2FA4DFD82F811128C08A
S11304E08C2F8370982F990F990F890F982F9295BD
S11304F0907F890F96DF8C2F869586958370982F31
S1130500990F990F890F982F9295907F890F89DF02
S1130510C295CF70C3708C2F880F880FC80F8C2F93
S11305208295807F8C0F7DDF78DF03C0D1E001C02E
S1130530D1E08D2FDF91CF9108957FDE34DFA0DFEE
S11305400CD024D078942FEF89E698E12150804094
S11305509040E1F700C00000F6CF84B18F7784B9F2
S113056085B18F7785B984B1806184B984B18064A1
S113057084B9E8E6F0E0808181608083EBE6F0E016
S113058080818460808380E48CBD0895109225016D
S11305901092240110922601089590912601943618
S11305A0A1F0E091240121E02E0F20932401F0E03A
S11305B0E95DFE4F80839F5F90932601243641F4CA
S11305C01092240180E090E008958FEF9FEF08954A
S11305D080E090E008951F920F920FB60F921124BD
S11305E02F933F934F935F936F937F938F939F9337
S11305F0AF93BF93EF93FF931A9B08C0F8948EB503
S1130600CCDF95B180E4892785B97894FF91EF9187
S1130610BF91AF919F918F917F916F915F914F9116
S11306203F912F910F900FBE0F901F901895F89443
S1050630FFCFF6
S1130632011121314151041424344454071727373A
S111064247570A1A2A3A4A5A0D1D2D3D4D5D9E
S9030000FC
