S01400004C65642072696E67204143452E7372656342
S1130000E1C0FBC0FAC009C3F8C0F7C0F6C0F5C030
S1130010F4C0F3C0F2C0F1C09FC1EFC0EEC0EDC0A8
S1130020ECC0EBC0EAC0E9C0FF38283718FF27341A
S11300300839FFFF17FF240D78FF2936FFFFFF352E
S113004007FFFFFF14137D126869FFFF196A26FF7B
S1130050FF3AFFFFFFFF250E7776FFFFFF6BFFFFE1
S113006004FF03FF6D6C020158FF59FFFFFFFF33CC
S1130070090A5AFF160BFF0CFFFF2A2BFFFFFFFF95
S1130080FFFFFFFF15FF7E7F67FF66FFFFFFFFFF98
S1130090FFFF5BFFFFFFFFFF7475FFFF73FFFFFFB1
S11300A05D5E5CFF725F71004847FF4449FFFF1DBE
S11300B0FF46FF45FFFF232279FF7AFF4AFFFF1E19
S11300C006FF7BFFFFFF7C11FFFFFF431AFF1B1C92
S11300D0FF3BFFFFFFFFFF0FFFFFFFFFFFFFFFFFE0
S11300E005FFFFFF6EFF6F105754FF2D5655FF326B
S11300F0FFFFFF2EFFFFFF21FF53FF2C4BFFFF1FCE
S1130100FFFFFFFFFFFFFF20643D6542FF3EFF311D
S1130110633CFF2FFFFFFF304D524E414C3FFF40E9
S113012062514F50616070FF00C201000100050080
S11301300500030000E1000001000F000F000D00A6
S113014000960000020019001A001700127A00003D
S11301500700200021001D00807000000B00230018
S113016023002000004B0000140037003700340047
S1130170403800001E004B004B0048008025000062
S11301803200720072007000C01200006E00E900BC
S1130190E900E60060090000E500D801D801D501B6
S11301A0B0040000D301B403B403B1035802000047
S11301B0B4036707670762072C0100006707DD0EB9
S11301C0DD0EDA0E11241FBECFEFD2E0DEBFCDBFAD
S11301D011E0A0E0B1E0EEEBFEE002C005900D926C
S11301E0A832B107D9F721E0A8E2B1E001C01D921D
S11301F0AA37B207E1F7F0D160C602CF862311F027
S113020080E0089581E00895CF93DF938BB1877FD9
S11302108BB900000000000086B160E8EFDFC82F52
S1130220D0E0D695DC2FCC27D795C79586B161E071
S1130230E5DF90E000249695879507949695879539
S11302400794982F802DC82BD92B86B162E0D6DF76
S113025090E0880F991F82959295907F9827807FD0
S11302609827C82BD92B86B164E0C8DF90E082952B
S11302709295907F9827807F9827C82BD92B89B196
S113028060E4BCDF90E0880F991F880F991F880FE6
S1130290991FC82BD92B89B160E8B0DF90E0880F93
S11302A0991F880F991FC82BD92B83B161E0A6DF52
S11302B090E0880F991FC82BD92B83B162E09EDF91
S11302C0FE01E82BE85DFF4F84919BB198609BB9D8
S11302D0DF91CF91089584B18C7F84B987B18877F9
S11302E087B988E08AB98BB188608BB98DE085BD08
S11302F08EE487BD82E080936E00789416BC84DF20
S113030080932A010895FB01DC016C91663748F063
S113031020812A3030F430E0261B310920583F4F29
S11303200FC06F3048F420812F3630F030E0261BA8
S113033031092058310904C0208130E0261B3109DD
S1130340DA016D917C911197260F371F2D933C9301
S11303502081FC01208308951F920F920FB60F9203
S113036011240F931F932F933F934F935F936F9396
S11303707F938F939F93AF93BF93CF93DF93EF9329
S1130380FF9380912801909129010097A1F43CDF0B
S113039080932B014CE251E06BE271E08AE291E040
S11303A0B2DF80912801909129010196909329014F
S11303B08093280132C0019781F580912C0190919E
S11303C02D0195958795959587958C0102951295A4
S11303D0107F1027007F1027081B190B1595079510
S11303E015950795159507951595079515950795F1
S11303F0C0E0D0E00BC00C171D0724F06CE08C2F7C
S1130400ACD003C060E18C2FA8D02196CE31D105A9
S113041094F31092290110922801FF91EF91DF913A
S1130420CF91BF91AF919F918F917F916F915F9188
S11304304F913F912F911F910F910F900FBE0F90ED
S11304401F90189582E08093B800E9EBF0E080817A
S113045080830895ECEBF0E09081946A908390910E
S1130460BC009923E4F79091B900987F983029F063
S11304709091B900987F9031C9F490E0880F991F4A
S1130480862B8093BB0084E88093BC008091BC00E1
S11304908823E4F78091B900887F883149F08091FE
S11304A0B900887F803431F480E0089581E00895B4
S11304B080E0089581E0089584E98093BC00089564
S11304C08093BB0084E88093BC008091BC008823A7
S11304D0E4F78091B900887F883211F081E00895B3
S11304E080E00895CF93DF93C82FD62F60E084E394
S11304F0B1DF81110BC08C2FE3DF811109C08D2F77
S1130500DFDFC82F811106C0D7DF05C0C1E003C0FB
S1130510C1E001C0C1E08C2FDF91CF910895CF934A
S1130520DF936EEA8FECDEDF61E080EADBDF6EE111
S113053081EAD8DFC0E9D0E004C06CE38C2FD2DFBD
S11305402196CF39D105CCF387B1886087B988B1BA
S1130550886088B9DF91CF910895CF93DF93C62F38
S1130560E82FF0E0E050FF4FD08160E084E372DFD9
S113057081112BC08D2FA4DFD82F811128C08C2F7F
S11305808370982F990F990F890F982F9295907FC8
S1130590890F96DF8C2F869586958370982F990FF7
S11305A0990F890F982F9295907F890F89DFC295B3
S11305B0CF70C3708C2F880F880FC80F8C2F829533
S11305C0807F8C0F7DDF78DF03C0D1E001C0D1E0F4
S11305D08D2FDF91CF91089560E875E280E090E07F
S11305E07FD079DE2FDF9BDF80912D018F93809167
S11305F02C018F938EE191E09F938F933ED12FEF47
S113060080E792E0215080409040E1F700C0000074
S11306100F900F900F900F90E7CF1F920F920FB68D
S11306200F9211242F933F934F938F939F93EF93A4
S1130630FF93189949C0809178019091790120E045
S113064001972FEF8F3F9207D9F721E040E012C0C6
S1130650809176019091770130E001973FEF8F3FD1
S11306609307D9F7822F8095189B02C0422B01C0B3
S11306704823220F2111ECCF8091740190917501D0
S113068001972FEF8F3F9207D9F780912F0190E0C8
S113069001968F73992720912E0130E082179307DA
S11306A069F0E0912F01F0E0E05DFE4F408380911E
S11306B02F018F5F8F7380932F0106C081E090E03C
S11306C09093710180937001FF91EF919F918F91AD
S11306D04F913F912F910F900FBE0F901F9018953F
S11306E00F931F938B019C0110922F0110922E01E6
S11306F0109271011092700184B1806484B984B144
S11307008E7F84B985B1816485B980E090E06BC047
S1130710FC01EE0FFF1FE80FF91FEE0FFF1FEE0F96
S1130720FF1FE85DFE4F4591559165917491401707
S113073051076207730709F055C09C01220F331F4C
S1130740F901E80FF91FEE0FFF1FEE0FFF1FE45D25
S1130750FE4F459154915093790140937801F901EA
S1130760E80FF91FEE0FFF1FEE0FFF1FE25DFE4FB4
S1130770459154915093770140937601F901E80F24
S1130780F91FEE0FFF1FEE0FFF1FE05DFE4F4591B7
S113079054915093750140937401F901E80FF91FC6
S11307A0EE0FFF1FEE0FFF1FEE5CFE4F859194913D
S11307B09093730180937201E8E6F0E08081816098
S11307C08083EBE6F0E08081816080838091720118
S11307D09091730120E001972FEF8F3F9207D9F793
S11307E0789405C001968D30910508F491CF1F913E
S11307F00F910895209172013091730121153105F3
S113080009F439C03FB7F89495B19F7B95B9E0914D
S11308107201F0917301349620E031972FEFEF3F8E
S1130820F207D9F791E015C0292F282321F025B12B
S1130830206425B903C025B12F7B25B9E09172014D
S1130840F091730120E031972FEFEF3FF207D9F7D2
S1130850990F9111E9CF85B1806485B93FBF80912B
S113086072019091730120E001972FEF8F3F92075F
S1130870D9F721E030E0C90108950F931F93CF9376
S1130880DF93CDB7DEB7E2970FB6F894DEBF0FBEA5
S1130890CDBF9E01275C3F4FF901419151919F01CA
S11308A062E370E0CE0101961AD000E010E003C0CC
S11308B0A1DF0F5F1F4FE1E0F0E0EC0FFD1FE00F41
S11308C0F11F80818111F4CFE2960FB6F894DEBF58
S11308D00FBECDBFDF91CF911F910F910895AEE070
S11308E0B0E0E4E7F4E0C0C28C01FA0186E08C8356
S11308F01A83098377FF02C060E070E8CB01019797
S11309009E838D83A901BF01CE01019611D04D8133
S11309105E8157FD0AC02F813885421753070CF4B6
S11309209A01F801E20FF31F10822E96E4E0B8C298
S1130930ABE0B0E0EDE9F4E089C26C017B018A012F
S1130940FC0117821682838181FFC0C1CE0101960A
S11309503C01F6019381F70193FD859193FF819109
S11309607F01882309F4AEC1853239F493FD859162
S113097093FF81917F01853221F4B60190E0C1D1CA
S1130980E8CF912C212C312CFFE1F315E0F08B32D0
S113099079F038F4803279F08332A9F4232D206180
S11309A010C08D3259F0803371F4232D216009C0B9
S11309B0832D8260382EE32DE46022C0F32DF8608D
S11309C025C0322E27C037FC2DC020ED280F2A3039
S11309D088F436FE06C0892D6AE02FD2922E980E36
S11309E019C0822D6AE029D2222E280E832D80621E
S11309F0382E10C08E3231F436FC64C1E32DE0642D
S1130A003E2E08C08C3621F4F32DF0683F2E02C030
S1130A10883641F4F70193FD859193FF81917F011D
S1130A208111B2CF982F9F7D9554933028F40C5F99
S1130A301F4F2FE329830DC0833631F0833771F0C4
S1130A40833509F055C020C0F801808189830E5F89
S1130A501F4F88248394912C530112C02801F2E083
S1130A604F0E511CF801A080B18036FE03C0692DE1
S1130A7070E002C06FEF7FEFC50138D14C018201F5
S1130A80F32DFF773F2E15C0280122E0420E511CA2
S1130A90F801A080B18036FE03C0692D70E002C069
S1130AA06FEF7FEFC50117D14C01F32DF0683F2E96
S1130AB0820133FC19C0822D90E088169906A0F4B7
S1130AC0B60180E290E01DD12A94F5CFF50137FC00
S1130AD0859137FE81915F01B60190E012D121101A
S1130AE02A9421E0821A91088114910479F7E1C0D3
S1130AF0843611F0893639F5F80137FE07C0608174
S1130B007181828193810C5F1F4F08C06081718164
S1130B10072E000C880B990B0E5F1F4FF32DFF76E9
S1130B203F2E97FF09C090958095709561957F4FF2
S1130B308F4F9F4FF0683F2E2AE030E0A3011DD174
S1130B40882E861844C0853731F4232D2F7EB22E8B
S1130B502AE030E025C0932D997FB92E8F36C1F05D
S1130B6018F4883579F0AEC0803719F0883721F051
S1130B70A9C0E92FE061BE2EB4FE0DC0FB2DF460C8
S1130B80BF2E09C034FE0AC0292F2660B22E06C02B
S1130B9028E030E005C020E130E002C020E132E08E
S1130BA0F801B7FE07C060817181828193810C5F77
S1130BB01F4F06C06081718180E090E00E5F1F4F7F
S1130BC0A301DBD0882E8618FB2DFF773F2E36FE3F
S1130BD00DC0232D2E7FA22E891458F434FE0BC091
S1130BE032FC09C0832D8E7EA82E05C0B82CA32C00
S1130BF003C0B82C01C0B92CA4FE0FC0FE01E80D3F
S1130C00F11D8081803321F49A2D997EA92E09C08B
S1130C10A2FE06C0B394B39404C08A2D867809F06A
S1130C20B394A3FC10C0A0FE06C0B21480F4280C38
S1130C30922C9B180DC0B21458F4B60180E290E0D7
S1130C4060D0B394F8CFB21418F42B1802C0982CC7
S1130C50212CA4FE0FC0B60180E390E052D0A2FE86
S1130C6016C0A1FC03C088E790E002C088E590E0CC
S1130C70B6010CC08A2D867851F0A1FE02C08BE229
S1130C8001C080E2A7FC8DE2B60190E03AD089145D
S1130C9030F4B60180E390E034D09A94F8CF8A948B
S1130CA0F301E80DF11D8081B60190E02AD0811096
S1130CB0F6CF222009F44DCEB60180E290E021D097
S1130CC02A94F7CFF6018681978102C08FEF9FEFB8
S1130CD02B96E2E1D7C0FC010590615070400110F1
S1130CE0D8F7809590958E0F9F1F0895FC01615051
S1130CF0704001900110D8F7809590958E0F9F1F3A
S1130D0008950F931F93CF93DF93FB01238121FD5C
S1130D1003C08FEF9FEF2CC022FF16C0468157817E
S1130D20248135814217530744F4A081B1819D0188
S1130D302F5F3F4F318320838C93268137812F5F30
S1130D403F4F3783268314C08B01EC01FB010084E1
S1130D50F185E02D0995892BE1F6D80116968D9140
S1130D609C911797019617969C938E931697CE0194
S1130D70DF91CF911F910F910895FA01AA2728308E
S1130D8061F1203191F1E8946F936E7F6E5F7F4F34
S1130D908F4F9F4FAF4FB1E040D0B4E03ED0670FCC
S1130DA0781F891F9A1FA11D680F791F8A1F911D23
S1130DB0A11D6A0F711D811D911DA11D22D009F471
S1130DC068943F91062E000C3019000C000C301969
S1130DD0305D3193CEF6CF010895462F4770405DC4
S1130DE04193B3E00FD0C9F7F6CF462F4F70405D63
S1130DF04A3318F0495D31FD4052419302D0A9F7BE
S1130E00EACFB4E0A6959795879577956795BA95B7
S1130E10C9F700976105710508959B01AC010A2E7D
S1130E2006945795479537952795BA95C9F7620F54
S1130E30731F841F951FA01D0895002480FD060EB6
S1130E40660F11F08695D1F7802D08952F923F9269
S1130E504F925F926F927F928F929F92AF92BF92C6
S1130E60CF92DF92EF92FF920F931F93CF93DF9372
S1130E70CDB7DEB7CA1BDB0B0FB6F894DEBF0FBECF
S1130E80CDBF09942A88398848885F846E847D841C
S1130E908C849B84AA84B984C884DF80EE80FD801E
S1130EA00C811B81AA81B981CE0FD11D0FB6F89494
S1110EB0DEBF0FBECDBFED010895F894FFCF55
S1130EBE01112131415104142434445407172737A6
S1130ECE47570A1A2A3A4A5A0D1D2D3D4D5D414384
S10B0EDE453A2025640D0A00C9
S9030000FC
